:100000000C9472000C949A000C949A000C949A0030
:100010000C949A000C949A000C949A000C949A00F8
:100020000C949A000C949A000C949A000C949A00E8
:100030000C949A000C949A000C949A000C949A00D8
:100040000C94570A0C949A000C9436060C947D0676
:100050000C949A000C949A000C949A000C949A00B8
:100060000C949A000C949A0005A84CCDB2D44EB9C9
:100070003836A9020C50B9918688083CA6AAAA2A4B
:10008000BE000000803F00000000240027002A007E
:1000900000000000250028002B00000000002300C5
:1000A00026002900040404040404040402020202D9
:1000B000020203030303030301020408102040802B
:1000C00001020408102001020408102000000007AB
:1000D0000002010000030406000000000000000010
:1000E0009201F40711241FBECFEFD8E0DEBFCDBFD1
:1000F00011E0A0E0B1E0E6E9F4E202C005900D9263
:10010000A83DB107D9F714E0A8EDB1E001C01D92F8
:10011000A438B107E1F710E0C4EED0E004C02297A4
:10012000FE010E946D0FC03ED107C9F70E94480A28
:100130000C9449120C940000CF92DF92EF92FF9240
:100140000F931F93CF93DF936B017C01EA018A85A4
:100150009B85AC85BD85C816D906EA06FB06B0F1BD
:10016000088119818A819B81F801E81BF90BFD83C5
:10017000EC8364E670E00E94070F7F836E83CF01FB
:1001800064E670E00E94070F79876887222717FDD1
:100190002095322F0C0D1D1D2E1D3F1D0A871B871C
:1001A0002C873D871F8A1E8A888D998DAA2797FDE7
:1001B000A095BA2F8C0D9D1DAE1DBF1D8A8B9B8BEC
:1001C000AC8BBD8B81E090E09B8F8A8F4A895B89E5
:1001D0006C897D89C416D506E606F706C8F18A8DB6
:1001E0009B8D0197C1F42E893F89233631059CF4FC
:1001F0008E819F81AA2797FDA095BA2F840F951F06
:10020000A61FB71F8A8B9B8BAC8BBD8B2F5F3F4F7D
:100210003F8B2E8B1DC06E897F8916161706C4F47E
:100220001B8E1A8E28853985442737FD4095542F1B
:100230008A899B89AC89BD89820F931FA41FB51F32
:100240008A8B9B8BAC8BBD8B615070407F8B6E8B90
:10025000DF91CF911F910F91FF90EF90DF90CF90A2
:100260000895EF92FF920F931F93CF93DF938B012B
:100270009C01EA014A895B894115510509F44BC08B
:100280008E819F81A885B98578018901E81AF90ACC
:100290000A0B1B0B888D998DA0E0B0E08E159F0591
:1002A000A007B10728F41C861D861E861F8633C052
:1002B000CA01AA2797FDA095BA2F6C897D898E1552
:1002C0009F05A007B10790F49B01442737FD409597
:1002D000542FC801B7010E94E80E9B01AC0160E4F5
:1002E00072E48FE090E00E941A0F11C0469F9001C7
:1002F000479F300D569F300D1124442737FD409500
:10030000542F60E472E48FE090E00E943C0F2C8751
:100310003D874E875F87DF91CF911F910F91FF90AF
:10032000EF9008950F931F938EE593E063E070E0E4
:1003300042E050E024E030E001E010E00E94570984
:100340001F910F910895CF93DF93DB010D90002053
:10035000E9F71197A61BB70BEC01E881F981028040
:10036000F381E02DAD010995DF91CF910895EF92D2
:10037000FF920F931F93CF93DF937B018C01EA01D0
:1003800088890E94E40B28813981892B69F48A814C
:100390009B81281739071CF42F5F3F4F0AC081E06B
:1003A00090E09D838C830AC0121613062CF4215012
:1003B00030403983288302C01D821C826C817D817C
:1003C0008E899F898617970791F088E00E94900B8D
:1003D0008C819D81892B59F48E819F819701281BE7
:1003E000390B3B8B2A8BEE82FF82088719878C8121
:1003F0009D819F8B8E8BDF91CF911F910F91FF90ED
:10040000EF900895AF92BF92CF92DF92EF92FF925A
:100410000F931F9380E00E94E80A65E070E00E945D
:10042000070FCB01880F991F880F991F860F971F01
:100430009C01442737FD4095542F2093D8013093D9
:10044000D9014093DA015093DB018091DC01909156
:10045000DD01A091DE01B091DF01281739074A07BD
:100460005B07D9F08091E0019091E10160913E013C
:1004700070913F018617970784F401969093E101EC
:100480008093E0018617970761F42093DC01309395
:10049000DD014093DE015093DF011092E1011092E3
:1004A000E00100D000D06091DC017091DD0180910D
:1004B000DE019091DF0128EE33E040E050E0EDB73F
:1004C000FEB7218332834383548320E030E040E051
:1004D00050E0E1E0EE2EE4E0FE2E012D112DAA24E5
:1004E000BB2465010E94FF096093E2017093E30160
:1004F0008093E4019093E5010F900F900F900F907F
:100500001F910F91FF90EF90DF90CF90BF90AF9031
:1005100008954F925F926F927F928F929F92AF92C7
:10052000BF92CF92DF92EF92FF920F931F93DF93D0
:10053000CF93CDB7DEB728970FB6F894DEBF0FBEC6
:10054000CDBF4B015C012A017B018C0197FF07C0E5
:10055000EE24FF248701E61AF70A080B190B80EA3C
:10056000E81686E8F80681E0080780E0180724F41A
:1005700082E0682E712C28C0C801B7012AE030E063
:1005800040E050E00E943C0FC901DA017C018D017E
:1005900090EAE91696E8F90691E0090790E0190754
:1005A00024F4B1E06B2E712C0FC0C801B7012AE012
:1005B00030E040E050E00E943C0FC901DA017C01CC
:1005C0008D0166246A94762CC801B7012AE030E0D8
:1005D00040E050E00E943C0F653071058CF08AE0ED
:1005E00090E0A0E0B0E0E80EF91E0A1F1B1FCB014F
:1005F000AA2797FDA095BA2FE81AF90A0A0B1B0B38
:10060000C801B70120EA36E841E050E00E943C0F03
:1006100020E137E240E050E00E943C0F38872F8312
:10062000C801B70120E137E240E050E00E943C0FF2
:1006300028EE33E040E050E00E943C0F3E832D83E3
:10064000C801B70128EE33E040E050E00E943C0FC3
:1006500024E630E040E050E00E943C0F3C832B83D6
:10066000C801B70124E630E040E050E00E943C0FB2
:100670002AE030E040E050E00E943C0F3A832983BA
:100680006E010894C11CD11CF60120E030E084E02A
:1006900090E08419950904C0119211922F5F3F4F89
:1006A00028173907CCF3EE24FF248824B7FC839461
:1006B0009924AA24BB24182DD6012C91E614F70402
:1006C00011F401E006C0E114F10411F000E001C0F2
:1006D000012F8EE593E060E070E0A7010E94B90869
:1006E0000894E11CF11CE2E0F0E0CE0EDF1EF4E025
:1006F000EF16F10409F728960FB6F894DEBF0FBE87
:10070000CDBFCF91DF911F910F91FF90EF90DF90C0
:10071000CF90BF90AF909F908F907F906F905F90A1
:100720004F9008956F927F928F929F92AF92BF9257
:10073000CF92DF92EF92FF920F931F930E949F0A36
:100740003B014C018091EE019091EF01A091F001ED
:10075000B091F101681679068A069B0608F42EC14D
:100760000196A11DB11D8093EE019093EF01A0931E
:10077000F001B093F1010E94020200D000D060911C
:10078000DC017091DD018091DE019091DF012FEF9E
:1007900030E040E050E0EDB7FEB721833283438381
:1007A000548320E030E040E050E0E1E0EE2EE4E071
:1007B000FE2E012D112DAA24BB2465010E94FF09E4
:1007C0009B01AC010F900F900F900F908BE0B9013F
:1007D0000E940A0BC401B30142EC52E00E949C004B
:1007E000C401B30146EB53E00E94B7018091EA01D6
:1007F0009091EB01A091EC01B091ED0168167906A2
:100800008A069B06D0F08091420190914301AA276D
:1008100097FDA095BA2F860D971DA81DB91D809331
:10082000EA019093EB01A093EC01B093ED01C401B8
:10083000B30146EB53E00E9431018091F2019091A7
:10084000F301A091F401B091F501681679068A06CA
:100850009B0630F18091400190914101AA2797FDBC
:10086000A095BA2F860D971DA81DB91D8093F20182
:100870009093F301A093F401B093F5016091C2034A
:100880007091C3038091C4039091C5032CE330E0C1
:1008900040E050E00E94E80E44E050E00E948902EF
:1008A0008091F6019091F701A091F801B091F901C2
:1008B000681679068A069B0608F480C08091440178
:1008C00090914501AA2797FDA095BA2F860D971DF7
:1008D000A81DB91D8093F6019093F701A093F8012C
:1008E000B093F9016091C2037091C3038091C40376
:1008F0009091C5032CE330E040E050E00E94E80E08
:100900006B017C018DB79EB744970FB6F8949EBFDC
:100910000FBE8DBF0DB71EB70F5F1F4F9EEDA92EE7
:1009200092E0B92EEDB7FEB7B282A18280E091E0ED
:10093000F80193838283C401B30128EE33E040E0E1
:1009400050E00E941A0FF8012483358346835783B1
:10095000C401B30128EE33E040E050E00E941A0FDA
:10096000F8016087718782879387C701B60128EEF7
:1009700033E040E050E00E943C0FF80124873587C7
:1009800046875787C701B60128EE33E040E050E0C4
:100990000E943C0FF801608B718B828B938B0E94BD
:1009A000710F8DB79EB744960FB6F8949EBF0FBED9
:1009B0008DBF8CE594E0B5010E94A3011F910F91BA
:1009C000FF90EF90DF90CF90BF90AF909F908F906F
:1009D0007F906F9008950F931F930EE513E0C80169
:1009E00060E070E040E00E943D09C80160E070E016
:1009F0004CE050E00E941909C80160E070E00E94DC
:100A0000E4081F910F9108952F923F924F925F92A9
:100A10006F927F928F929F92AF92BF92CF92DF920E
:100A2000EF92FF920F931F93DF93CF9300D000D0EC
:100A300000D0CDB7DEB77C836B839A8389831E8217
:100A40001D821B01442437FC4094542C3A01882415
:100A500077FC8094982C4CC0C201B1010E947C0D9F
:100A60009B01AC016BED7FE089E490E40E94E10C16
:100A70007B018C012D813E81B901882777FD80950E
:100A8000982F0E947C0D9B01AC01C801B7010E9408
:100A9000410E0E94DE0C5B016C01C401B3010E9497
:100AA0007C0D20E030E040E05FE30E94410E7B01DE
:100AB0008C01C601B50120E030E040E85FE30E9410
:100AC000790C9B01AC01C801B7010E94410E0E9444
:100AD000490D709561957F4FE981FA81619371931A
:100AE000FA83E9832D813E812F5F3F4F3E832D8323
:100AF0008D819E81EB81FC818E179F070CF4ACCF1A
:100B000026960FB6F894DEBF0FBECDBFCF91DF9112
:100B10001F910F91FF90EF90DF90CF90BF90AF901B
:100B20009F908F907F906F905F904F903F902F900D
:100B300008950F931F930CE514E0C80140E052ECB8
:100B400061E070E00E94C606C8016CE171E00E949D
:100B5000A301C8016FE271E00E94A3018BE061E094
:100B60000E946A0B87E060E00E946A0B88E061E007
:100B70000E946A0B0E94EB040E949F0A6093E601A8
:100B80007093E7018093E8019093E90125E030E05C
:100B90003093C1032093C00348E853E15093CF033F
:100BA0004093CE0387E090E09093C7038093C60301
:100BB0003093B9032093B80380E293E0A0E0B0E063
:100BC0008093D0039093D103A093D203B093D30327
:100BD00081E090E09093CB038093CA031092C2030C
:100BE0001092C3031092C4031092C5031092CC025A
:100BF0001092CD021092CE021092CF025093C302F7
:100C00004093C2021092D4021092D5021092D602E2
:100C10001092D70288EE93E09093C5028093C402AD
:100C20008CEA9DE09093C7028093C6028AE090E030
:100C30009093C9028093C80283E290E09093CB0224
:100C40008093CA021092D9021092D8021092DB024D
:100C50001092DA028AEF91E064E670E04FEF50E024
:100C60000E9404051F910F91089508951F920F92FD
:100C70000FB60F9211242F933F934F938F939F930F
:100C8000EF93FF934091C600209114043091150416
:100C90002F5F3F4F2F73307080911604909117048F
:100CA0002817390759F0E0911404F0911504EC521B
:100CB000FC4F40833093150420931404FF91EF916F
:100CC0009F918F914F913F912F910F900FBE0F9059
:100CD0001F901895E0916804F0916904E05CFF4F63
:100CE0008191919120813181821B930B8F73907040
:100CF000892B11F00E94350608951F920F920FB6AE
:100D00000F9211242F933F934F935F936F937F9391
:100D10008F939F93AF93BF93EF93FF9320915804CA
:100D20003091590480915A0490915B042817390737
:100D300031F48091C1008F7D8093C10016C0E09195
:100D40005A04F0915B04E85EFB4F408180915A04A5
:100D500090915B04019660E470E00E94070F90930D
:100D60005B0480935A044093C600FF91EF91BF91BA
:100D7000AF919F918F917F916F915F914F913F9133
:100D80002F910F900FBE0F901F901895AF92BF92AA
:100D9000DF92EF92FF920F931F93CF93DF93EC01BB
:100DA0007A018B01DD24403081EE580780E068072E
:100DB00080E0780711F0DD24D39491E0A92EB12CC6
:100DC000EC89FD89DD2069F0C5010E8C02C0880F19
:100DD000991F0A94E2F7808360E079E08DE390E068
:100DE00005C0108260E874E88EE190E0A8019701E8
:100DF0000E941A0F21503040404050405695479570
:100E00003795279580E12030380720F0DD2011F05C
:100E1000DD24D6CFE889F9893083EA89FB892083EC
:100E2000EE89FF89408121E030E0C9010A8C02C0CF
:100E3000880F991F0A94E2F7482B4083EE89FF89B7
:100E40004081C9010B8C02C0880F991F0A94E2F7F8
:100E5000482B4083EE89FF894081C9010C8C02C078
:100E6000880F991F0A94E2F7482B4083EE89FF8987
:100E700080810D8C02C0220F331F0A94E2F7209567
:100E800028232083DF91CF911F910F91FF90EF9046
:100E9000DF90BF90AF900895DC011C96ED91FC911E
:100EA0001D97E05CFF4F2191319180819181281B3A
:100EB000390B2F733070C9010895DC011C96ED9138
:100EC000FC911D97E05CFF4F20813181E054F040A0
:100ED000DF01AE5BBF4F8D919C91119728173907A9
:100EE00019F42FEF3FEF07C08D919C91E80FF91F88
:100EF0008081282F30E0C9010895DC011C96ED9116
:100F0000FC911D97E05CFF4F20813181E054F0405F
:100F1000DF01AE5BBF4F8D919C9111972817390768
:100F200019F42FEF3FEF10C08D919C911197E80FAE
:100F3000F91F20818D919C91119701968F7390706C
:100F400011969C938E9330E0C9010895FC0186852B
:100F50009785DC01A05CBF4FFC01EE5BFF4F2D913C
:100F60003C9111978081918128173907C1F7089525
:100F7000CF93DF93EC01462FEE85FF85E05CFF4FBA
:100F800080819181E054F040019660E470E00E941D
:100F9000070F9C01DF01AE5BBF4F8D919C911197B4
:100FA00028173907D1F3E05CFF4F80819181E0542D
:100FB000F040E80FF91F4083EE85FF85E05CFF4FAE
:100FC00031832083EE89FF89208181E090E00D8CC0
:100FD00002C0880F991F0A94E2F7282B208381E032
:100FE00090E0DF91CF91089510925F0410925E041B
:100FF00088EE93E0A0E0B0E08093600490936104F9
:10100000A0936204B09363048BE491E090935D0439
:1010100080935C0484ED93E090936904809368046A
:1010200088E194E090936B0480936A0485EC90E0EF
:1010300090936D0480936C0484EC90E090936F0423
:1010400080936E0480EC90E0909371048093700420
:1010500081EC90E0909373048093720486EC90E0AE
:10106000909375048093740484E08093760483E005
:101070008093770487E08093780485E080937904F7
:1010800081E080937A0408958F929F92AF92BF92ED
:10109000CF92DF92EF92FF920F931F93DF93CF9344
:1010A00000D0CDB7DEB77C0149832A83660F771F56
:1010B00086E590E0E80EF91EF701008111818AEAC9
:1010C0009FEFE80EF91E000F111F80E090E005C0B1
:1010D000F701E80FF91F1082019680179107C4F3FA
:1010E0008981F701E60FF71F81838A818083F701E9
:1010F000EC5AFF4F808160E00E94900B015010403D
:101100006701C00ED11E0F5F1F4F90E5892E912CF5
:101110008E0C9F1C82E5A82EB12CAE0CBF1C0EC0FD
:1011200001501040F4018081F501608141E0F60139
:1011300020810E94370C0894C108D10810161106AE
:101140007CF384E590E0E80EF91EF701808161E010
:101150000E94900B0F900F90CF91DF911F910F91F4
:10116000FF90EF90DF90CF90BF90AF909F908F90C7
:1011700008950F93DC0177FD25C0AA5ABF4F8D91CA
:101180009C911197A655B04068177907DCF4483058
:101190005105C0F42031B0F4E22FF0E0E95AFE4FDF
:1011A000208101112068FB0183E0EE0FFF1F8A956B
:1011B000E1F7EA0FFB1FE40FF51F208B4F5FCD0116
:1011C0000E9444080F910895DF92EF92FF920F93CF
:1011D0001F93CF93DF93EC017B0177FD22C0CA5AA6
:1011E000DF4F88819981C655D04068177907CCF4C4
:1011F0008B010E5F1F4F53E0000F111F5A95E1F74F
:101200000C0F1D1FDD24D394F80111928F01CE0124
:10121000B7014D2D20E00E944408D394F9E0DF1679
:1012200099F7DF91CF911F910F91FF90EF90DF9091
:101230000895FC01242F77FD0DC0EA5AFF4F8081ED
:101240009181E655F0406817790724F4CF014AE010
:101250000E9444080895FC01242F77FD0DC0EA5A2E
:10126000FF4F80819181E655F0406817790724F49B
:10127000CF014BE00E9444080895FC0177FD16C0A1
:10128000EA5AFF4F80819181E655F040681779074F
:101290006CF4442331F0CF014CE020E00E9444087C
:1012A0000895CF014CE021E00E9444080895CF92B8
:1012B000DF92EF92FF920F931F93CF93DF93EC0196
:1012C0006B01C05BDF4F69937993499359933983DD
:1012D0002883C455D040C8010197089710F008E052
:1012E00010E0CA5ADF4F19830883C655D0408E01DB
:1012F000005B1F4FF801808161E00E946A0BFE01D4
:10130000EE5AFF4F808161E00E946A0B74E5E72E80
:10131000F12CEC0EFD1EF701808161E00E946A0B4A
:10132000F701808161E00E94900BF801D182C082B8
:10133000FE0180E090E0108A01963196803491059C
:10134000D1F700E010E066E5C62ED12CCC0EDD1EF4
:101350001DC0CE01B8014FE020E00E944408CE013C
:10136000B80147E050E00E942B09CE01B80149E0E6
:1013700020E00E944408CE01B8010E94E408CE019A
:10138000B80141E00E943D090F5F1F4FF6018081C7
:10139000918108171907ECF2DF91CF911F910F91FE
:1013A000FF90EF90DF90CF900895CF92DF92EF9271
:1013B000FF920F931F93CF93DF937C016B018A0100
:1013C000C0E0D0E00FC0D6016D916D01D701ED9165
:1013D000FC910190F081E02DC7010995C80FD91F3C
:1013E000015010400115110571F7CE01DF91CF9129
:1013F0001F910F91FF90EF90DF90CF9008952F9263
:101400003F924F925F926F927F928F929F92AF9294
:10141000BF92CF92DF92EF92FF920F931F93DF93D1
:10142000CF93CDB7DEB73B014C0119012A016D897D
:101430007E898F89988D6A197B098C099D09621AAA
:10144000730A840A950AA40193010E94E80EE21827
:10145000F30804091509A80197010E943C0F2A0D01
:101460003B1D4C1D5D1DB901CA01CF91DF911F913C
:101470000F91FF90EF90DF90CF90BF90AF909F9033
:101480008F907F906F905F904F903F902F90089536
:10149000CF93DF930E94AD0A0E949905CAE6D6E079
:1014A0000E9492032097E1F30E946A06F9CF1F92EF
:1014B0000F920FB60F9211242F933F938F939F9308
:1014C000AF93BF9380917F0490918004A091810499
:1014D000B0918204309183040196A11DB11D232F88
:1014E0002D5F2D3720F02D570196A11DB11D2093A2
:1014F000830480937F0490938004A0938104B0932D
:10150000820480917B0490917C04A0917D04B09131
:101510007E040196A11DB11D80937B0490937C04F1
:10152000A0937D04B0937E04BF91AF919F918F9162
:101530003F912F910F900FBE0F901F9018958FB76E
:10154000F89420917F04309180044091810450915F
:1015500082048FBFB901CA010895789484B582606E
:1015600084BD84B5816084BD85B5826085BD85B547
:10157000816085BDEEE6F0E0808181608083E1E8F6
:10158000F0E010828081826080838081816080832E
:10159000E0E8F0E0808181608083E1EBF0E0808131
:1015A00084608083E0EBF0E0808181608083EAE703
:1015B000F0E080818460808380818260808380818C
:1015C000816080838081806880831092C10008954B
:1015D000982F8E3008F09E5097708091460182952A
:1015E000880F880F807C892B80937C0080917A0003
:1015F000806480937A0080917A0086FDFCCF2091F0
:10160000780040917900942F80E030E0282B392B2E
:10161000C90108951F93CF93DF93182FEB0161E069
:101620000E946A0B209709F44AC0CF3FD10509F404
:1016300049C0E12FF0E0E453FF4F84918330C1F0C3
:10164000843028F4813051F08230B1F50CC08630FE
:1016500019F1873049F1843079F514C084B5806878
:1016600084BDC7BD33C084B5806284BDC8BD2EC0F3
:1016700080918000806880938000D0938900C0931F
:10168000880024C080918000806280938000D09385
:101690008B00C0938A001AC08091B000806880934C
:1016A000B000C093B30012C08091B00080628093FC
:1016B000B000C093B4000AC0C038D1051CF4812F1B
:1016C00060E002C0812F61E00E94900BDF91CF911A
:1016D0001F910895482F50E0CA0188549F4FFC0184
:1016E00024914C555F4FFA0184918823C1F0E82F73
:1016F000F0E0EE0FFF1FEA57FF4FA591B49166236C
:1017000041F49FB7F8948C91209582238C939FBFCE
:1017100008959FB7F8948C91822B8C939FBF089566
:10172000482F50E0CA0184539F4FFC012491CA0105
:1017300088549F4FFC0194914C555F4FFA013491AE
:10174000332309F440C0222351F1233071F02430B7
:1017500028F42130A1F0223011F514C02630B1F068
:101760002730C1F02430D9F404C0809180008F77F5
:1017700003C0809180008F7D8093800010C084B56D
:101780008F7702C084B58F7D84BD09C08091B00081
:101790008F7703C08091B0008F7D8093B000E32FDE
:1017A000F0E0EE0FFF1FE057FF4FA591B4912FB768
:1017B000F894662321F48C919095892302C08C9132
:1017C000892B8C932FBF0895682F70E0CB01845331
:1017D0009F4FFC012491CB0188549F4FFC01449101
:1017E0006C557F4FFB019491992319F420E030E070
:1017F0003CC0222351F1233071F0243028F42130F1
:10180000A1F0223011F514C02630B1F02730C1F01C
:101810002430D9F404C0809180008F7703C0809178
:1018200080008F7D8093800010C084B58F7702C0C8
:1018300084B58F7D84BD09C08091B0008F7703C0CF
:101840008091B0008F7D8093B000892F90E0880F49
:10185000991F86569F4FFC01A591B4918C9120E071
:1018600030E0842311F021E030E0C9010895BF92F7
:10187000CF92DF92EF92FF920F931F93CF93DF935C
:10188000E82EF62EB42EC7E0D0E0022F10E087E05D
:10189000C82ED12CBB2059F4B6016C1B7D0BC8019E
:1018A00002C0959587956A95E2F7BC0107C0B8011B
:1018B0000C2E02C0759567950A94E2F761708E2D23
:1018C0000E94900B8F2D61E00E94900B8F2D60E0A5
:1018D0000E94900B21979FEFCF3FD907D9F6DF9158
:1018E000CF911F910F91FF90EF90DF90CF90BF901D
:1018F00008955058BB27AA270ED078C141D130F0A7
:1019000046D120F031F49F3F11F41EF436C10EF49D
:10191000E095E7FB2CC1E92F8BD180F3BA17620762
:1019200073078407950718F071F49EF5A3C10EF4B0
:10193000E0950B2EBA2FA02D0B01B90190010C01DF
:10194000CA01A0011124FF27591B99F0593F50F4F7
:10195000503E68F11A16F040A22F232F342F44274F
:10196000585FF3CF469537952795A795F040539547
:10197000C9F77EF41F16BA0B620B730B840BBAF017
:101980009150A1F0FF0FBB1F661F771F881FC2F782
:101990000EC0BA0F621F731F841F48F48795779596
:1019A0006795B795F7959E3F08F0B3CF9395880F4D
:1019B00008F09927EE0F979587950895F0D0E39555
:1019C00026C10CD013C1E3D040F0DAD030F021F4BE
:1019D0005F3F19F0CCC051114EC1CFC029D198F34F
:1019E0009923C9F35523B1F3951B550BBB27AA27A0
:1019F00062177307840738F09F5F5F4F220F331F12
:101A0000441FAA1FA9F333D00E2E3AF0E0E830D0DD
:101A100091505040E695001CCAF729D0FE2F27D0E0
:101A2000660F771F881FBB1F261737074807AB07AE
:101A3000B0E809F0BB0B802DBF01FF2793585F4F23
:101A40002AF09E3F510568F092C015C15F3FECF34C
:101A5000983EDCF3869577956795B795F7959F5FE8
:101A6000C9F7880F911D9695879597F90895E1E03C
:101A7000660F771F881FBB1F621773078407BA079B
:101A800020F0621B730B840BBA0BEE1F88F7E095F6
:101A9000089504D06894B111EEC00895D1D088F0B3
:101AA0009F5790F0B92F9927B751A0F0D1F0660F4A
:101AB000771F881F991F1AF0BA95C9F712C0B13065
:101AC00081F0D8D0B1E00895D5C0672F782F88274E
:101AD000B85F39F0B93FCCF3869577956795B395A4
:101AE000D9F73EF490958095709561957F4F8F4F13
:101AF0009F4F0895E89409C097FB3EF49095809518
:101B0000709561957F4F8F4F9F4F9923A9F0F92FC3
:101B100096E9BB279395F695879577956795B79541
:101B2000F111F8CFFAF4BB0F11F460FF1BC06F5F27
:101B30007F4F8F4F9F4F16C0882311F096E911C039
:101B4000772321F09EE8872F762F05C0662371F05A
:101B500096E8862F70E060E02AF09A95660F771F6E
:101B6000881FDAF7880F9695879597F9089597F962
:101B70009F6780E870E060E008959FEF80EC089533
:101B800000240A941616170618060906089500245C
:101B90000A9412161306140605060895EECF50D0C7
:101BA000E8F3E894E0E0BB279F57F0F02AED3FE030
:101BB00049EC06C0EE0FBB0F661F771F881F28F089
:101BC000B23A62077307840728F0B25A620B730BAC
:101BD000840BE3959A9572F7803830F49A95BB0F91
:101BE000661F771F881FD2F79048B0C0092E039454
:101BF000000C11F4882352F0BB0F40F4BF2B11F4FA
:101C000060FF04C06F5F7F4F8F4F9F4F0895EF932A
:101C1000E0FF06C0A2EA2AED3FE049EC5FEB7BDE85
:101C2000E5DF0F90039401FC9058E8E6F0E09AC0DD
:101C300057FD9058440F551F59F05F3F71F047957D
:101C4000880F97FB991F61F09F3F79F08795089562
:101C5000121613061406551FF2CF4695F1DF08C081
:101C6000161617061806991FF1CF8695710561059E
:101C700008940895E894BB2766277727CB0197F946
:101C800008950BD0B3CF7CDF28F081DF18F09523C7
:101C900009F06DCF72CF1124EECFCADFA0F3959F6C
:101CA000D1F3950F50E0551F629FF001729FBB2743
:101CB000F00DB11D639FAA27F00DB11DAA1F649FEF
:101CC0006627B00DA11D661F829F2227B00DA11DA2
:101CD000621F739FB00DA11D621F839FA00D611D28
:101CE000221F749F3327A00D611D231F849F600D49
:101CF000211D822F762F6A2F11249F5750408AF082
:101D0000E1F088234AF0EE0FFF1FBB1F661F771F0D
:101D1000881F91505040A9F79E3F510570F027CF82
:101D2000AACF5F3FECF3983EDCF3869577956795F5
:101D3000B795F795E7959F5FC1F7FE2B880F911D2B
:101D40009695879597F908959F3F31F0915020F42B
:101D5000879577956795B795880F911D9695879587
:101D600097F908959F938F937F936F93FF93EF93CA
:101D70009B01AC0186DFEF91FF9105D02F913F9140
:101D80004F915F917ECFDF93CF931F930F93FF927D
:101D9000EF92DF927B018C01689405C0DA2EEF018F
:101DA0007CDFFE01E894A5912591359145915591EF
:101DB000AEF3EF01B0DDFE019701A801DA9479F7E7
:101DC000DF90EF90FF900F911F91CF91DF910895D9
:101DD000629FD001739FF001829FE00DF11D649F0F
:101DE000E00DF11D929FF00D839FF00D749FF00D9B
:101DF000659FF00D9927729FB00DE11DF91F639F3C
:101E0000B00DE11DF91FBD01CF011124089597FB0D
:101E1000092E07260AD077FD04D049D006D000202D
:101E20001AF4709561957F4F0895F6F79095819516
:101E30009F4F0895A1E21A2EAA1BBB1BFD010DC0E6
:101E4000AA1FBB1FEE1FFF1FA217B307E407F5076A
:101E500020F0A21BB30BE40BF50B661F771F881F46
:101E6000991F1A9469F760957095809590959B01DC
:101E7000AC01BD01CF01089597FB092E05260ED0B8
:101E800057FD04D0D7DF0AD0001C38F45095409598
:101E9000309521953F4F4F4F5F4F0895F6F790953E
:101EA0008095709561957F4F8F4F9F4F0895AA1B26
:101EB000BB1B51E107C0AA1FBB1FA617B70710F035
:101EC000A61BB70B881F991F5A95A9F78095909567
:101ED000BC01CD010895EE0FFF1F0590F491E02D98
:101EE0000994AEE0B0E0E7E7FFE00C9420120D8922
:101EF0001E8986E08C831A8309838FEF9FE79E8378
:101F00008D839E01275E3F4FCE0101966F89788DAC
:101F1000A9010E94950F2F813885020F131FF80128
:101F200010822E96E4E00C943C12ABE0B0E0EBE9BA
:101F3000FFE00C9412123C012B015A01FC011782A4
:101F40001682838181FD03C06FEF7FEFC6C19AE0E7
:101F5000892E1E010894211C311CF3012381F201FA
:101F600023FD859123FF81912F01882309F4B2C1BC
:101F7000853239F423FD859123FF81912F0185322C
:101F800029F490E0B3010E948811E7CF982FFF2435
:101F9000EE249924FFE1FF15D0F09B3269F09C32CA
:101FA00028F4903259F0933291F40EC09D3249F0EA
:101FB000903369F441E024C052E0F52A84E0F82A25
:101FC00028C098E0F92A25C0E0E1FE2A22C0F7FCEB
:101FD00029C0892F80538A3070F4F6FE05C0989C82
:101FE000902C1124980E15C0E89CE02C1124E80ECA
:101FF000F0E2FF2A0EC09E3229F4F6FC6BC140E4E9
:10200000F42A07C09C3619F450E8F52A02C0983625
:1020100049F4F20123FD959123FF91912F0199231A
:1020200009F0B8CF892F8554833018F0805283305F
:1020300038F444E050E0A40EB51E5FE359830FC0AE
:10204000933631F0933779F0933509F056C020C0BC
:10205000F5018081898342E050E0A40EB51E610144
:1020600001E010E012C0F501C080D180F6FC03C091
:102070006FEF7FEF02C0692D70E042E050E0A40EE8
:10208000B51EC6010E947D118C015FE7F52214C0C8
:10209000F501C080D180F6FC03C06FEF7FEF02C076
:1020A000692D70E042E050E0A40EB51EC6010E940A
:1020B00072118C0150E8F52AF3FE07C01AC080E2C5
:1020C00090E0B3010E948811EA948E2D90E00817E9
:1020D0001907A8F30EC0F601F7FC8591F7FE819170
:1020E0006F0190E0B3010E948811E110EA94015061
:1020F00010400115110579F7EAC0943611F09936B0
:1021000069F5F7FE08C0F5012081318142815381D4
:1021100084E090E00AC0F501808191819C01442710
:1021200037FD4095542F82E090E0A80EB91E9FE63F
:10213000F92257FF09C050954095309521953F4FA2
:102140004F4F5F4FE0E8FE2ACA01B901A1012AE022
:1021500030E00E94B411D82ED21840C0953729F42F
:102160001F2D1F7E2AE030E01DC01F2D197F9F36D6
:1021700061F0903720F4983509F0ACC00FC090376B
:1021800039F0983709F0A6C004C028E030E00AC052
:10219000106114FD146020E130E004C014FD1660ED
:1021A00020E132E017FF08C0F50160817181828172
:1021B000938144E050E008C0F50180819181BC0129
:1021C00080E090E042E050E0A40EB51EA1010E9424
:1021D000B411D82ED2188FE7F82EF122F6FE0BC0DC
:1021E0005EEFF522D91438F4F4FE07C0F2FC05C006
:1021F0008FEEF82202C01D2D01C0192DF4FE0DC076
:10220000FE01ED0DF11D8081803319F499EEF92264
:1022100008C01F5FF2FE05C003C08F2D867809F04D
:102220001F5F0F2DF3FC14C0F0FE0FC01E1510F041
:102230009D2C0BC09D2C9E0C911A1E2D06C080E279
:1022400090E0B3010E9488111F5F1E15C0F304C007
:102250001E1510F4E11A01C0EE2404FF0FC080E344
:1022600090E0B3010E94881102FF1DC001FD03C070
:1022700088E790E00EC088E590E00BC0802F86785C
:1022800091F001FF02C08BE201C080E2F7FC8DE219
:1022900090E0B3010E94881106C080E390E0B30192
:1022A0000E9488119A94D914C0F3DA94F101ED0DCB
:1022B000F11D808190E0B3010E948811DD20A9F713
:1022C00006C080E290E0B3010E948811EA94EE20FB
:1022D000C1F743CEF30166817781CB012B96E2E112
:1022E0000C942E12FC010590615070400110D8F73B
:1022F000809590958E0F9F1F0895FC01615070404E
:1023000001900110D8F7809590958E0F9F1F08952A
:102310000F931F93CF93DF938C01EB018B8181FF90
:102320001BC082FF0DC02E813F818C819D812817AB
:10233000390764F4E881F9810193F983E88306C0E1
:10234000E885F985802F0995892B31F48E819F814D
:1023500001969F838E8302C00FEF1FEFC801DF91AC
:10236000CF911F910F910895FA01AA27283051F1BA
:10237000203181F1E8946F936E7F6E5F7F4F8F4FB6
:102380009F4FAF4FB1E03ED0B4E03CD0670F781F15
:10239000891F9A1FA11D680F791F8A1F911DA11DFA
:1023A0006A0F711D811D911DA11D20D009F4689433
:1023B0003F912AE0269F11243019305D3193DEF6DB
:1023C000CF010895462F4770405D4193B3E00FD091
:1023D000C9F7F6CF462F4F70405D4A3318F0495D7C
:1023E00031FD4052419302D0A9F7EACFB4E0A6955F
:1023F0009795879577956795BA95C9F70097610581
:10240000710508959B01AC010A2E069457954795D6
:1024100037952795BA95C9F7620F731F841F951FCB
:10242000A01D08952F923F924F925F926F927F92DC
:102430008F929F92AF92BF92CF92DF92EF92FF92D4
:102440000F931F93CF93DF93CDB7DEB7CA1BDB0B80
:102450000FB6F894DEBF0FBECDBF09942A88398825
:1024600048885F846E847D848C849B84AA84B9842C
:10247000C884DF80EE80FD800C811B81AA81B98138
:10248000CE0FD11D0FB6F894DEBF0FBECDBFED014C
:062490000895F894FFCF4F
:102496003C723E256C752E2530336C7509256C64AF
:1024A6002E2530336C643C2F723E0A003C683E7425
:1024B600696D650973706565643C2F683E0A003C6A
:1024C600753E6D730972706D3C2F753E0A001400DF
:1024D600C800320032000100000000B807D5094CE0
:1024E600077D075D07A6077E306D79335B5F707FDA
:1024F6007B771F0D3D4F47000000000000000000E5
:1025060000000000000000000000000000000000C5
:10251600000000800180007E306D79335B5F707F44
:102526007B00000000000000771F0D3D4F4700377D
:102536000000000E00000067000000000000000020
:102546000000000000000800771F0D3D4F470037D0
:102556000000000E00000067000000000000000000
:0825660000000000000000006D
:00000001FF
