:100000000C9471000C9499000C9499000C94990034
:100010000C9499000C9499000C9499000C949900FC
:100020000C9499000C9499000C9499000C949900EC
:100030000C9499000C9499000C9499000C949900DC
:100040000C948E070C9499000C9499000C949900D0
:100050000C9499000C9499000C9499000C949900BC
:100060000C9499000C94990005A84CCDB2D44EB9CB
:100070003836A9020C50B9918688083CA6AAAA2A4B
:10008000BE000000803F00000000240027002A007E
:1000900000000000250028002B00000000002300C5
:1000A00026002900040404040404040402020202D9
:1000B000020203030303030301020408102040802B
:1000C00001020408102001020408102000000007AB
:1000D0000002010000030406000000000000000010
:1000E0009B0011241FBECFEFD8E0DEBFCDBF11E0D3
:1000F000A0E0B1E0E4EAF9E102C005900D92AA386F
:10010000B107D9F713E0AAE8B1E001C01D92A5300C
:10011000B107E1F710E0C2EED0E004C02297FE0183
:100120000E94CC0CC03ED107C9F70E947F070C94F7
:10013000D00C0C9400000F931F9386E892E063E0CC
:1001400070E042E050E024E030E001E010E00E9486
:10015000B8061F910F9108954F925F926F927F9210
:100160008F929F92AF92BF92CF92DF92EF92FF92C7
:100170000F931F93DF93CF93CDB7DEB728970FB6BA
:10018000F894DEBF0FBECDBF4B015C012A017B019D
:100190008C0197FF07C0EE24FF248701E61AF70AB7
:1001A000080B190B80EAE81686E8F80681E00807D4
:1001B00080E0180724F422E0622E712C28C0C801C8
:1001C000B7012AE030E040E050E00E949B0CC901FA
:1001D000DA017C018D0190EAE91696E8F90691E0D2
:1001E000090790E0190724F491E0692E712C0FC0E3
:1001F000C801B7012AE030E040E050E00E949B0CCB
:10020000C901DA017C018D0166246A94762CC8014B
:10021000B7012AE030E040E050E00E949B0C6530DE
:1002200071058CF08AE090E0A0E0B0E0E80EF91EE5
:100230000A1F1B1FCB01AA2797FDA095BA2FE81A0A
:10024000F90A0A0B1B0BC801B70120EA36E841E0A6
:1002500050E00E949B0C20E137E240E050E00E9419
:100260009B0C38872F83C801B70120E137E240E0BB
:1002700050E00E949B0C28EE33E040E050E00E94EA
:100280009B0C3E832D83C801B70128EE33E040E08C
:1002900050E00E949B0C24E630E040E050E00E94D9
:1002A0009B0C3C832B83C801B70124E630E040E07F
:1002B00050E00E949B0C2AE030E040E050E00E94B9
:1002C0009B0C3A8329836E010894C11CD11CF60152
:1002D00020E030E084E090E08419950904C0119298
:1002E00011922F5F3F4F28173907CCF3EE24FF24DC
:1002F0008824B7FC83949924AA24BB24182DD60102
:100300002C91E614F70411F401E006C0E114F104A5
:1003100011F000E001C0012F86E892E060E070E09B
:10032000A7010E941A060894E11CF11CE2E0F0E02B
:10033000CE0EDF1EF4E0EF16F10409F728960FB693
:10034000F894DEBF0FBECDBFCF91DF911F910F910B
:10035000FF90EF90DF90CF90BF90AF909F908F90E5
:100360007F906F905F904F9008956F927F928F92E1
:100370009F92AF92BF92CF92DF92EF92FF920F9334
:100380001F930E94D6073B014C01809198019091E8
:100390009901A0919A01B0919B01681679068A068D
:1003A0009B0608F4F0C10196A11DB11D8093980130
:1003B00090939901A0939A01B0939B01E09004015E
:1003C000F0900501009106011091070180E00E9464
:1003D0001F08AA2797FDA095BA2FBC01CD010E9446
:1003E000B30A9B01AC01C801B7010E947C0B7B01E1
:1003F0008C0160E070E080E89FE32091040130917F
:10040000050140910601509107010E94B009209119
:100410008A0130918B0140918C0150918D010E9495
:100420007C0B9B01AC01C801B7010E94B1097B01A3
:100430008C0160938A0170938B0180938C0190935F
:100440008D0120E030E040E050E00E94780B8823EE
:100450004CF0C801B70120E030E040E05FE30E94CB
:10046000B10908C0C801B70120E030E040E05FE317
:100470000E94B0090E94800A9B01AC0100D000D00C
:1004800084E690E0A0E0B0E0EDB7FEB78183928310
:10049000A383B483CA01B90120E030E040E050E01A
:1004A000F9E6EF2EF3E0FF2E012D112DAA24BB2437
:1004B00065010E94360770938F0160938E01E09072
:1004C0008A01F0908B0100918C0110918D010F90A9
:1004D0000F900F900F90C801B70120E030E040E08E
:1004E00050E00E94780B88234CF0C801B70120E04F
:1004F00030E040E05FE30E94B10908C0C801B701E5
:1005000020E030E040E05FE30E94B0090E94800AF2
:100510009B01AC0100D000D08FEF90E0A0E0B0E0F4
:10052000EDB7FEB781839283A383B483CA01B90177
:1005300020E030E040E050E0E9E6EE2EE3E0FE2E81
:10054000012D112DAA24BB2465010E9436079B01B1
:10055000AC010F900F900F900F908BE0B9010E94AB
:1005600041088091720290917302A0917402B0913F
:100570007502681679068A069B0608F44EC000913B
:1005800068021091690280916A0290916B02F801F1
:10059000E81BF90BF0936D02E0936C0264E670E0E7
:1005A0000E94660C70936F0260936E02CF0164E646
:1005B00070E00E94660C70937102609370022227B3
:1005C00017FD2095322F060D171D281D391D00938C
:1005D000720210937302209374023093750210928A
:1005E0007F0210927E028091800290918102AA2760
:1005F00097FDA095BA2F860D971DA81DB91D809354
:100600007A0290937B02A0937C02B0937D0281E0FA
:1006100090E0909383028093820240917A025091FD
:100620007B0260917C0270917D02641675068606DD
:10063000970608F449C08091820290918302019745
:10064000F1F420917E0230917F0223363105BCF413
:1006500080916E0290916F02AA2797FDA095BA2F04
:10066000840F951FA61FB71F80937A0290937B0279
:10067000A0937C02B0937D022F5F3F4F21C0209159
:100680007E0230917F0212161306F4F41092830258
:10069000109282028091700290917102AA2797FDB8
:1006A000A095BA2F840F951FA61FB71F80937A02BB
:1006B00090937B02A0937C02B0937D022150304046
:1006C00030937F0220937E028091EE020E941B09EC
:1006D000892BC9F42091DE023091DF028091E00283
:1006E0009091E102281739073CF42F5F3F4F309378
:1006F000DF022093DE0218C081E090E09093E302D5
:100700008093E20211C08091DE029091DF02181600
:10071000190634F401979093DF028093DE0204C03F
:100720001092E3021092E2026091E2027091E30201
:100730008091F4029091F50286179707E1F088E026
:100740000E94C7088091E2029091E302892B99F4FC
:100750008091E4029091E5029301281B390B3093BC
:10076000F1022093F0026092E4027092E50280921E
:10077000E6029092E7028091E2029091E302909368
:10078000F5028093F4028091940190919501A091DB
:100790009601B0919701681679068A069B0608F4BF
:1007A00079C08091E4029091E502A091E602B091B7
:1007B000E702A4019301281B390B4A0B5B0B8091C4
:1007C000F6029091F702A0E0B0E082179307A40729
:1007D000B50748F41092EA021092EB021092EC0274
:1007E0001092ED0225C08091F0029091F1027C01FF
:1007F0000027F7FC0095102FE216F30604071507F3
:1008000038F460E472E48FE090E00E94790C08C054
:1008100060E472E48FE090E0A80197010E949B0CD5
:100820002093EA023093EB024093EC025093ED02E6
:100830008091840290918502009799F46091EA0278
:100840007091EB028091EC029091ED022CE330E08C
:1008500040E050E00E94470C44E050E00E94AC00B1
:1008600005C00197909385028093840280910201D4
:1008700090910301AA2797FDA095BA2F860D971D89
:10088000A81DB91D8093940190939501A0939601A2
:10089000B093970180919C0190919D01A0919E0140
:1008A000B0919F01681679068A069B06A0F0809198
:1008B000000190910101AA2797FDA095BA2F860DFE
:1008C000971DA81DB91D80939C0190939D01A09335
:1008D0009E01B0939F011F910F91FF90EF90DF90C9
:1008E000CF90BF90AF909F908F907F906F90089522
:1008F0000F931F9306E812E0C80160E070E040E04B
:100900000E949E06C80160E070E04CE050E00E944A
:100910007A06C80160E070E00E9445061F910F91C1
:1009200008952F923F924F925F926F927F928F9293
:100930009F92AF92BF92CF92DF92EF92FF920F936E
:100940001F93DF93CF9300D000D000D0CDB7DEB798
:100950007C836B839A8389831E821D821B014424BE
:1009600037FC4094542C3A01882477FC8094982CCE
:100970004CC0C201B1010E94B30A9B01AC016BEDF6
:100980007FE089E490E40E94180A7B018C012D81AC
:100990003E81B901882777FD8095982F0E94B30A80
:1009A0009B01AC01C801B7010E947C0B0E94150A93
:1009B0005B016C01C401B3010E94B30A20E030E086
:1009C00040E05FE30E947C0B7B018C01C601B50116
:1009D00020E030E040E85FE30E94B0099B01AC01F9
:1009E000C801B7010E947C0B0E94800A7095619536
:1009F0007F4FE981FA8161937193FA83E9832D81B5
:100A00003E812F5F3F4F3E832D838D819E81EB8101
:100A1000FC818E179F070CF4ACCF26960FB6F89486
:100A2000DEBF0FBECDBFCF91DF911F910F91FF9021
:100A3000EF90DF90CF90BF90AF909F908F907F907E
:100A40006F905F904F903F902F9008958BE061E002
:100A50000E94A10887E060E00E94A10888E061E0B0
:100A60000E94A1080E9478040E94D607609390011A
:100A700070939101809392019093930125E030E06F
:100A80003093E9022093E80288EB9BE09093F70211
:100A90008093F60287E090E09093EF028093EE025D
:100AA0003093E1022093E00280E293E0A0E0B0E026
:100AB0008093F8029093F902A093FA02B093FB029C
:100AC00081E090E09093F3028093F2021092720220
:100AD00010927302109274021092750288E893E1EA
:100AE000909369028093680210927A0210927B02BE
:100AF00010927C0210927D0288EE93E090936B023C
:100B000080936A028CEA9DE090936D0280936C0260
:100B10008AE090E090936F0280936E0283E290E00F
:100B2000909371028093700210927F0210927E0265
:100B3000109281021092800280EA91E064E670E0F7
:100B40004FEF50E00E94910408958F929F92AF92D0
:100B5000BF92CF92DF92EF92FF920F931F93DF939A
:100B6000CF9300D0CDB7DEB77C0149832A83660FCF
:100B7000771F86E590E0E80EF91EF70100811181EC
:100B80008AEA9FEFE80EF91E000F111F80E090E047
:100B900005C0F701E80FF91F108201968017910731
:100BA000C4F38981F701E60FF71F81838A8180836F
:100BB000F701EC5AFF4F808160E00E94C7080150A6
:100BC00010406701C00ED11E0F5F1F4F90E5892EA8
:100BD000912C8E0C9F1C82E5A82EB12CAE0CBF1C54
:100BE0000EC001501040F4018081F501608141E0A8
:100BF000F60120810E946E090894C108D1081016E0
:100C000011067CF384E590E0E80EF91EF70180817F
:100C100061E00E94C7080F900F90CF91DF911F9164
:100C20000F91FF90EF90DF90CF90BF90AF909F908B
:100C30008F9008950F93DC0177FD25C0AA5ABF4F0E
:100C40008D919C911197A655B04068177907DCF4F7
:100C500048305105C0F42031B0F4E22FF0E0E75FF6
:100C6000FE4F208101112068FB0183E0EE0FFF1F82
:100C70008A95E1F7EA0FFB1FE40FF51F208B4F5F0A
:100C8000CD010E94A5050F910895DF92EF92FF928A
:100C90000F931F93CF93DF93EC017B0177FD22C06D
:100CA000CA5ADF4F88819981C655D04068177907A5
:100CB000CCF48B010E5F1F4F53E0000F111F5A95AC
:100CC000E1F70C0F1D1FDD24D394F80111928F0161
:100CD000CE01B7014D2D20E00E94A505D394F9E087
:100CE000DF1699F7DF91CF911F910F91FF90EF9051
:100CF000DF900895FC01242F77FD0DC0EA5AFF4FC5
:100D000080819181E655F0406817790724F4CF017E
:100D10004AE00E94A5050895FC01242F77FD0DC02F
:100D2000EA5AFF4F80819181E655F04068177907B4
:100D300024F4CF014BE00E94A5050895FC0177FD46
:100D400016C0EA5AFF4F80819181E655F04068173E
:100D500079076CF4442331F0CF014CE020E00E948D
:100D6000A5050895CF014CE021E00E94A505089556
:100D7000CF92DF92EF92FF920F931F93CF93DF9367
:100D8000EC016B01C05BDF4F6993799349935993F1
:100D900039832883C455D040C8010197089710F0C3
:100DA00008E010E0CA5ADF4F19830883C655D040C7
:100DB0008E01005B1F4FF801808161E00E94A10855
:100DC000FE01EE5AFF4F808161E00E94A10874E5A8
:100DD000E72EF12CEC0EFD1EF701808161E00E94F0
:100DE000A108F701808161E00E94C708F801D18263
:100DF000C082FE0180E090E0108A01963196803436
:100E00009105D1F700E010E066E5C62ED12CCC0E9E
:100E1000DD1E1DC0CE01B8014FE020E00E94A505F7
:100E2000CE01B80147E050E00E948C06CE01B80127
:100E300049E020E00E94A505CE01B8010E944506C8
:100E4000CE01B80141E00E949E060F5F1F4FF601E0
:100E50008081918108171907ECF2DF91CF911F91E2
:100E60000F91FF90EF90DF90CF9008952F923F92D7
:100E70004F925F926F927F928F929F92AF92BF92AA
:100E8000CF92DF92EF92FF920F931F93DF93CF9356
:100E9000CDB7DEB73B014C0119012A016D897E896E
:100EA0008F89988D6A197B098C099D09621A730ACA
:100EB000840A950AA40193010E94470CE218F308E2
:100EC00004091509A80197010E949B0C2A0D3B1DDE
:100ED0004C1D5D1DB901CA01CF91DF911F910F918A
:100EE000FF90EF90DF90CF90BF90AF909F908F904A
:100EF0007F906F905F904F903F902F900895CF9389
:100F0000DF930E94E4070E942605C0E0D0E00E9423
:100F1000B5012097E1F30E940000F9CF1F920F92D4
:100F20000FB60F9211242F933F938F939F93AF93FC
:100F3000BF938091000390910103A0910203B091AF
:100F40000303309104030196A11DB11D232F2D5FD2
:100F50002D3720F02D570196A11DB11D20930403BC
:100F60008093000390930103A0930203B0930303C3
:100F70008091FC029091FD02A091FE02B091FF02CF
:100F80000196A11DB11D8093FC029093FD02A093D8
:100F9000FE02B093FF02BF91AF919F918F913F915D
:100FA0002F910F900FBE0F901F9018958FB7F89448
:100FB00020910003309101034091020350910303FB
:100FC0008FBFB901CA010895789484B5826084BD49
:100FD00084B5816084BD85B5826085BD85B581603D
:100FE00085BDEEE6F0E0808181608083E1E8F0E09D
:100FF0001082808182608083808181608083E0E8CC
:10100000F0E0808181608083E1EBF0E080818460AA
:101010008083E0EBF0E0808181608083EAE7F0E0AC
:101020008081846080838081826080838081816010
:1010300080838081806880831092C1000895982FFA
:101040008E3008F09E509770809108018295880F2D
:10105000880F807C892B80937C0080917A0080644B
:1010600080937A0080917A0086FDFCCF20917800F1
:1010700040917900942F80E030E0282B392BC90172
:1010800008951F93CF93DF93182FEB0161E00E9427
:10109000A108209709F44AC0CF3FD10509F449C0FF
:1010A000E12FF0E0E453FF4F84918330C1F08430AE
:1010B00028F4813051F08230B1F50CC0863019F13E
:1010C000873049F1843079F514C084B5806884BDD7
:1010D000C7BD33C084B5806284BDC8BD2EC08091B9
:1010E0008000806880938000D0938900C09388003E
:1010F00024C080918000806280938000D0938B0018
:10110000C0938A001AC08091B00080688093B000BC
:10111000C093B30012C08091B00080628093B00091
:10112000C093B4000AC0C038D1051CF4812F60E020
:1011300002C0812F61E00E94C708DF91CF911F910B
:101140000895482F50E0CA0188549F4FFC01249114
:101150004C555F4FFA0184918823C1F0E82FF0E0ED
:10116000EE0FFF1FEA57FF4FA591B491662341F49C
:101170009FB7F8948C91209582238C939FBF0895FC
:101180009FB7F8948C91822B8C939FBF0895482F22
:1011900050E0CA0184539F4FFC012491CA01885436
:1011A0009F4FFC0194914C555F4FFA0134913323CA
:1011B00009F440C0222351F1233071F0243028F487
:1011C0002130A1F0223011F514C02630B1F02730C3
:1011D000C1F02430D9F404C0809180008F7703C01F
:1011E000809180008F7D8093800010C084B58F77C0
:1011F00002C084B58F7D84BD09C08091B0008F7717
:1012000003C08091B0008F7D8093B000E32FF0E0A9
:10121000EE0FFF1FE057FF4FA591B4912FB7F89441
:10122000662321F48C919095892302C08C91892B9F
:101230008C932FBF0895682F70E0CB0184539F4F8C
:10124000FC012491CB0188549F4FFC0144916C55C3
:101250007F4FFB019491992319F420E030E03CC0CA
:10126000222351F1233071F0243028F42130A1F0F1
:10127000223011F514C02630B1F02730C1F02430EF
:10128000D9F404C0809180008F7703C080918000E2
:101290008F7D8093800010C084B58F7702C084B5A5
:1012A0008F7D84BD09C08091B0008F7703C080918D
:1012B000B0008F7D8093B000892F90E0880F991F38
:1012C00086569F4FFC01A591B4918C9120E030E0AF
:1012D000842311F021E030E0C9010895BF92CF923C
:1012E000DF92EF92FF920F931F93CF93DF93E82E3D
:1012F000F62EB42EC7E0D0E0022F10E087E0C82E13
:10130000D12CBB2059F4B6016C1B7D0BC80102C067
:10131000959587956A95E2F7BC0107C0B8010C2E38
:1013200002C0759567950A94E2F761708E2D0E9450
:10133000C7088F2D61E00E94C7088F2D60E00E94D2
:10134000C70821979FEFCF3FD907D9F6DF91CF91FB
:101350001F910F91FF90EF90DF90CF90BF90089575
:101360005058BB27AA270ED078C141D130F046D1C2
:1013700020F031F49F3F11F41EF436C10EF4E095D5
:10138000E7FB2CC1E92F8BD180F3BA1762077307F3
:101390008407950718F071F49EF5A3C10EF4E0954B
:1013A0000B2EBA2FA02D0B01B90190010C01CA011F
:1013B000A0011124FF27591B99F0593F50F4503ECA
:1013C00068F11A16F040A22F232F342F4427585FBC
:1013D000F3CF469537952795A795F0405395C9F7D4
:1013E0007EF41F16BA0B620B730B840BBAF091508C
:1013F000A1F0FF0FBB1F661F771F881FC2F70EC02B
:10140000BA0F621F731F841F48F4879577956795FD
:10141000B795F7959E3F08F0B3CF9395880F08F0E6
:101420009927EE0F979587950895F0D0E39526C1FB
:101430000CD013C1E3D040F0DAD030F021F45F3F9C
:1014400019F0CCC051114EC1CFC029D198F39923C6
:10145000C9F35523B1F3951B550BBB27AA27621778
:101460007307840738F09F5F5F4F220F331F441FBD
:10147000AA1FA9F333D00E2E3AF0E0E830D09150F5
:101480005040E695001CCAF729D0FE2F27D0660FE2
:10149000771F881FBB1F261737074807AB07B0E821
:1014A00009F0BB0B802DBF01FF2793585F4F2AF037
:1014B0009E3F510568F092C015C15F3FECF3983E26
:1014C000DCF3869577956795B795F7959F5FC9F794
:1014D000880F911D9695879597F90895E1E0660F1D
:1014E000771F881FBB1F621773078407BA0720F096
:1014F000621B730B840BBA0BEE1F88F7E0950895FF
:1015000004D06894B111EEC00895D1D088F09F57EF
:1015100090F0B92F9927B751A0F0D1F0660F771F3F
:10152000881F991F1AF0BA95C9F712C0B13081F01F
:10153000D8D0B1E00895D5C0672F782F8827B85F3D
:1015400039F0B93FCCF3869577956795B395D9F780
:101550003EF490958095709561957F4F8F4F9F4F8A
:101560000895E89409C097FB3EF490958095709596
:1015700061957F4F8F4F9F4F9923A9F0F92F96E9DF
:10158000BB279395F695879577956795B795F11154
:10159000F8CFFAF4BB0F11F460FF1BC06F5F7F4FF1
:1015A0008F4F9F4F16C0882311F096E911C0772303
:1015B00021F09EE8872F762F05C0662371F096E80C
:1015C000862F70E060E02AF09A95660F771F881FDB
:1015D000DAF7880F9695879597F9089597F99F6799
:1015E00080E870E060E008959FEF80EC08950024AB
:1015F0000A941616170618060906089500240A9478
:1016000012161306140605060895EECF50D0E8F31F
:10161000E894E0E0BB279F57F0F02AED3FE049EC6B
:1016200006C0EE0FBB0F661F771F881F28F0B23A67
:1016300062077307840728F0B25A620B730B840B9E
:10164000E3959A9572F7803830F49A95BB0F661F30
:10165000771F881FD2F79048D8C0092E0394000C3A
:1016600011F4882352F0BB0F40F4BF2B11F460FF3C
:1016700004C06F5F7F4F8F4F9F4F0895EF93E0FF40
:1016800006C0A2EA2AED3FE049EC5FEB7BDEE5DF36
:101690000F90039401FC9058E8E6F0E0C2C057FDBB
:1016A0009058440F551F59F05F3F71F04795880FD0
:1016B00097FB991F61F09F3F79F087950895121667
:1016C00013061406551FF2CF4695F1DF08C0161613
:1016D00017061806991FF1CF8695710561050894C4
:1016E0000895E894BB2766277727CB0197F90895DB
:1016F00066D008F48FEF08950BD0AFCF78DF28F0D5
:101700007DDF18F0952309F069CF6ECF1124EACF61
:10171000C6DFA0F3959FD1F3950F50E0551F629F50
:10172000F001729FBB27F00DB11D639FAA27F00D3A
:10173000B11DAA1F649F6627B00DA11D661F829F61
:101740002227B00DA11D621F739FB00DA11D621F46
:10175000839FA00D611D221F749F3327A00D611D63
:10176000231F849F600D211D822F762F6A2F112445
:101770009F5750408AF0E1F088234AF0EE0FFF1F98
:10178000BB1F661F771F881F91505040A9F79E3FCF
:10179000510570F023CFA6CF5F3FECF3983EDCF30A
:1017A000869577956795B795F795E7959F5FC1F70C
:1017B000FE2B880F911D9695879597F90895990F9F
:1017C0000008550FAA0BE0E8FEEF16161706E8070B
:1017D000F907C0F012161306E407F50798F0621B2C
:1017E000730B840B950B39F40A2661F0232B242B01
:1017F000252B21F408950A2609F4A140A6958FEF20
:10180000811D811D08959F3F31F0915020F48795EF
:1018100077956795B795880F911D9695879597F958
:1018200008959F938F937F936F93FF93EF939B0103
:10183000AC0162DFEF91FF9105D02F913F914F9165
:101840005F915ACFDF93CF931F930F93FF92EF9245
:10185000DF927B018C01689405C0DA2EEF0158DF1E
:10186000FE01E894A5912591359145915591AEF3EE
:10187000EF0188DDFE019701A801DA9479F7DF9086
:10188000EF90FF900F911F91CF91DF910895629F8C
:10189000D001739FF001829FE00DF11D649FE00D68
:1018A000F11D929FF00D839FF00D749FF00D659FC9
:1018B000F00D9927729FB00DE11DF91F639FB00DC8
:1018C000E11DF91FBD01CF011124089597FB092ED9
:1018D00007260AD077FD04D049D006D000201AF49C
:1018E000709561957F4F0895F6F7909581959F4F7C
:1018F0000895A1E21A2EAA1BBB1BFD010DC0AA1F51
:10190000BB1FEE1FFF1FA217B307E407F50720F068
:10191000A21BB30BE40BF50B661F771F881F991FE3
:101920001A9469F760957095809590959B01AC012C
:10193000BD01CF01089597FB092E05260ED057FD56
:1019400004D0D7DF0AD0001C38F45095409530956C
:1019500021953F4F4F4F5F4F0895F6F79095809533
:10196000709561957F4F8F4F9F4F0895AA1BBB1BAA
:1019700051E107C0AA1FBB1FA617B70710F0A61B8F
:10198000B70B881F991F5A95A9F780959095BC01B0
:10199000CD010895EE0FFF1F0590F491E02D0994FD
:0419A000F894FFCFE9
:1019A400C8003200CDCC4C3D017E306D79335B5F95
:1019B400707F7B771F0D3D4F470000000000000043
:1019C4000000000000000000000000000000000013
:1019D4000000000000800180007E306D79335B5F81
:1019E400707F7B00000000000000771F0D3D4F4713
:1019F40000370000000E0000006700000000000037
:101A040000000000000000000800771F0D3D4F4754
:101A140000370000000E0000006700000000000016
:0A1A240000000000000000000000B8
:00000001FF
