:100000000C9462000C948A000C948A000C948A0070
:100010000C948A000C948A000C948A000C948A0038
:100020000C948A000C948A000C948A000C948A0028
:100030000C948A000C948A000C948A000C948A0018
:100040000C9437090C948A000C94A7060C94EE06C5
:100050000C948A000C948A000C948A000C948A00F8
:100060000C948A000C948A000000000024002700F1
:100070002A0000000000250028002B0000000000DE
:1000800023002600290004040404040404040202DA
:100090000202020203030303030301020408102007
:1000A0004080010204081020010204081020000012
:1000B0000007000201000003040600000000000029
:1000C0000000650811241FBECFEFD8E0DEBFCDBF12
:1000D00013E0A0E0B1E0EAE1FDE102C005900D927D
:1000E000A63FB107D9F715E0A6EFB3E001C01D9216
:1000F000AE37B107E1F710E0C4ECD0E004C02297BE
:10010000FE010E947E0BC23CD107C9F70E9428095C
:100110000C948B0E0C940000EF92FF920F931F93A0
:10012000CF93DF938B019C01EA014A895B894115DA
:10013000510509F44BC08E819F81A885B98578014E
:100140008901E81AF90A0A0B1B0B888D998DA0E02A
:10015000B0E08E159F05A007B10728F41C861D8608
:100160001E861F8633C0CA01AA2797FDA095BA2F05
:100170006C897D898E159F05A007B10790F49B01BE
:10018000442737FD4095542FC801B7010E94F90A52
:100190009B01AC0160E472E48FE090E00E942B0BC5
:1001A00011C0469F9001479F300D569F300D11247E
:1001B000442737FD4095542F60E472E48FE090E0CF
:1001C0000E944D0B2C873D874E875F87DF91CF9133
:1001D0001F910F91FF90EF900895CF93DF93DB0174
:1001E0000D900020E9F71197A61BB70BEC01E881F1
:1001F000F9810280F381E02DAD010995DF91CF9166
:1002000008958F929F92AF92BF92CF92DF92EF921A
:10021000FF920F931F934C01FC01628173818481D3
:10022000958120E233E040E050E00E94F90A7B0132
:100230008C0181E00E94C809AA2797FDA095BA2FDA
:10024000BC01CD0128EC30E040E050E00E94F90A0A
:100250006E0D7F1D801F911F28EE33E040E050E0BF
:100260000E944D0BCA01F40122833383448395839A
:1002700000D000D04681578160857185EDB7FEB70B
:100280004183528363837483B90120E030E040E00E
:1002900050E0EFEFEE2EE3E0FE2E012D112DAA240B
:1002A000BB2465010E94DF08F4016287738784879D
:1002B00095870F900F900F900F901F910F91FF90C7
:1002C000EF90DF90CF90BF90AF909F908F90089568
:1002D0008F929F92AF92BF92CF92DF92EF92FF9256
:1002E0000F931F934C0183E00E94C8095C01D40165
:1002F00014966D917D918D919C91179720E233E03A
:1003000040E050E00E94F90A7B018C0188EF98EFF1
:10031000AFEFBFEFE80EF91E0A1F1B1FCC24B7FC7E
:10032000C094DC2CC601B50128EC30E040E050E080
:100330000E94F90AE60EF71E081F191FC801B7012F
:1003400028EE33E040E050E00E944D0BCA01D4019A
:1003500014962C93149715963C93159716964C93D8
:10036000169717969C9300D000D048EA51E660E0BB
:1003700070E0EDB7FEB74183528363837483B901A4
:1003800020E030E040E050E0AFEFEA2EA3E0FA2EAC
:10039000012D112DF8E5AF2EFEE9BF2EFFEFCF2E78
:1003A000FFEFDF2E0E94DF08D4011F967C936E932F
:1003B0001E970F900F900F900F901F910F91FF902D
:1003C000EF90DF90CF90BF90AF909F908F90089567
:1003D000EF92FF920F931F93CF93DF937B018C01DA
:1003E000EA0188890E94640A28813981892B69F48D
:1003F0008A819B81281739071CF42F5F3F4F0AC061
:1004000081E090E09D838C830AC0121613062CF4C1
:10041000215030403983288302C01D821C826C81A8
:100420007D818E899F898617970791F08DE00E94C4
:10043000100A8C819D81892B59F48E819F819701AF
:10044000281B390B3B8B2A8BEE82FF82088719878A
:100450008C819D819F8B8E8BDF91CF911F910F910E
:10046000FF90EF9008951F93982F162F86E0692F25
:100470000E94100A84E060E00E94100A87E068E0B1
:1004800041E0212F0E94B70A84E061E00E94100A37
:100490001F9108951F93162F682F606880E00E94B7
:1004A0003302106480E0612F0E9433021F9108958F
:1004B00084E061E00E94EA0985E061E00E94EA09C7
:1004C00086E061E00E94EA0987E061E00E94EA09B3
:1004D00088E061E00E94EA0985E060E00E94100A7D
:1004E00085E061E00E94100A80E061E20E94330230
:1004F00080E061EB0E94330280E064E00E943302FE
:1005000080E064E10E94330280E06CE00E943302EC
:1005100080E060E20E94330280E06CE00E943302DF
:100520000895CF93DF93C0E0D0E081E060E00E94C7
:100530003302219681E0C83FD807B9F7DF91CF9108
:1005400008950F931F93CF93DF93182F81E060E0FE
:100550000E943302812F992787FD90958097EC01A7
:10056000CC0FDD1FCC0FDD1FC80FD91FCB5FDD4FB8
:1005700085E018028001112406591E4F81E069911F
:100580000E943302C017D107C9F781E060E00E94E2
:100590003302DF91CF911F910F910895CF93DF9395
:1005A000EC0103C021960E94A10288818823D1F723
:1005B000DF91CF9108952F923F924F925F926F9269
:1005C0007F928F929F92AF92BF92CF92DF92EF92E3
:1005D000FF920F931F93CF93DF930E947F091B011C
:1005E0002C018091020490910304A0910404B09125
:1005F0000504281639064A065B0608F404C301966A
:10060000A11DB11D8093020490930304A0930404E0
:10061000B0930504C201B10142E954E00E94E8012F
:100620008091FE039091FF03A0910004B09101041A
:10063000281639064A065B0610F18091FC0190915C
:10064000FD01AA2797FDA095BA2F820D931DA41D29
:10065000B51D8093FE039093FF03A0930004B09315
:100660000104C201B10142E954E00E948C0080EB18
:1006700094E00E94680180EC94E00E940101809166
:100680000E0490910F04A0911004B091110428164B
:1006900039064A065B06C0F1809100029091010282
:1006A000AA2797FDA095BA2F820D931DA41DB51DF5
:1006B00080930E0490930F04A0931004B093110440
:1006C00020E030E08091020290910302892B11F426
:1006D00021E030E0309303022093020280E090E0BA
:1006E00062E070E00E944A0280910202909103024F
:1006F0008130910519F480E091E004C0892B21F448
:1007000087E091E00E94CE02809106049091070458
:10071000A0910804B0910904281639064A065B0620
:1007200008F497C18091FA019091FB01AA2797FDE7
:10073000A095BA2F820D931DA41DB51D80930604AC
:1007400090930704A0930804B09309044091BE0459
:10075000E091BF048DB79EB70A970FB6F8949EBF7D
:100760000FBE8DBFCDB7DEB7219682E194E0ADB765
:10077000BEB712969C938E9311978BE090E09B836B
:100780008A838EE091E09D838C83842F9E2F68EE78
:1007900073E00E94180B7F836E83242F3E2FC901C4
:1007A00097FF03C0909581959F4F68EE73E00E947C
:1007B000180B6AE070E00E94180B798768870E9426
:1007C000820BEDB7FEB73A960FB6F894FEBF0FBE98
:1007D000EDBF86E090E061E070E00E944A028BE1AC
:1007E00091E00E94CE0286E090E061E070E00E941D
:1007F0004A02C2E1D4E0CE010E94CE028091020200
:100800009091030281309105E9F560919E04709109
:100810009F048091A0049091A1042CE330E040E07B
:1008200050E00E94F90A6B017C018DB79EB70E97CC
:100830000FB6F8949EBF0FBE8DBF0DB71EB70F5FEA
:100840001F4FADB7BEB71296DC93CE9311978BE0D6
:1008500090E0F8019383828387E291E0958384831B
:10086000C701B60128EE33E040E050E00E944D0B96
:10087000D80116962D933D934D935C931997C7011C
:10088000B60155C0892B09F06DC06091BE0470910E
:10089000BF04882777FD8095982F2091CA04309156
:1008A000CB044091CC045091CD040E94F90A28EE6B
:1008B00033E040E050E00E944D0BF22EE32ED42EA8
:1008C000C52E2093F6033093F7034093F80350931B
:1008D000F903ADB7BEB71E970FB6F894BEBF0FBEF3
:1008E000ADBF0DB71EB70F5F1F4F1296DC93CE93AF
:1008F00011978BE090E0F8019383828385E391E088
:1009000095838483622F732F842F952F28EE33E0F5
:1009100040E050E00E944D0BD80116962D933D9378
:100920004D935C9319976F2D7E2D8D2D9C2D28EE68
:1009300033E040E050E00E944D0B24E630E040E020
:1009400050E00E944D0BF80122873387448755877A
:100950000E94820B8DB79EB70E960FB6F8949EBF7D
:100960000FBE8DBF86E090E063E070E00E944A0217
:100970008BE191E00E94CE0286E090E063E070E0BF
:100980000E944A0292E1A92E94E0B92EC5010E946C
:10099000CE02C090CA04D090CB04E090CC04F0907A
:1009A000CD04ADB7BEB71E970FB6F894BEBF0FBE4D
:1009B000ADBF0DB71EB70F5F1F4F1296BC92AE9220
:1009C00011978CE090E0F8019383828385E491E0B5
:1009D00095838483C701B60128EE33E040E050E000
:1009E0000E944D0BD80116962D933D934D935C9329
:1009F0001997C701B60128EE33E040E050E00E94AD
:100A00004D0B2AE030E040E050E00E944D0BF80131
:100A100022873387448755870E94820B8DB79EB704
:100A20000E960FB6F8949EBF0FBE8DBF86E090E085
:100A300065E070E00E944A028BE191E00E94CE02E4
:100A400086E090E065E070E00E944A02C5010E94E5
:100A5000CE0280910A0490910B04A0910C04B091F5
:100A60000D04281639064A065B0608F4CCC08091AE
:100A7000FE019091FF01AA2797FDA095BA2F820D44
:100A8000931DA41DB51D80930A0490930B04A0939D
:100A90000C04B0930D0460919E0470919F048091AA
:100AA000A0049091A1042CE330E040E050E00E94CB
:100AB000F90A6B017C018090CA049090CB04A0904D
:100AC000CC04B090CD04ADB7BEB796970FB6F894EE
:100AD000BEBF0FBEADBF0DB71EB70F5F1F4F82E188
:100AE000682E84E0782E12967C926E92119785E59E
:100AF00091E0F80193838283C201B10128EE33E0D3
:100B000040E050E00E942B0BD80114962D933D93AA
:100B10004D935C931797C201B10128EE33E040E09A
:100B200050E00E942B0BF8016087718782879387C2
:100B3000C701B60128EE33E040E050E00E944D0BC3
:100B4000D8011C962D933D934D935C931F97C7013D
:100B5000B60128EE33E040E050E00E944D0B2AE061
:100B600030E040E050E00E944D0BF801208B318BCB
:100B7000428B538B8091BE049091BF04958B848BE4
:100B80008091B4049091B504A091B604B091B704DB
:100B9000868B978BA08FB18FC501B40128EE33E00F
:100BA00040E050E00E944D0BD8015A962D933D93A2
:100BB0004D935C935D97C501B40128EE33E040E0AE
:100BC00050E00E944D0BF801668F778F80A391A3B0
:100BD0008091C2049091C304A091C404B091C50453
:100BE00082A393A3A4A3B5A30E94B30B8DB79EB712
:100BF00086960FB6F8949EBF0FBE8DBF86E595E032
:100C0000B3010E94ED00DF91CF911F910F91FF90F2
:100C1000EF90DF90CF90BF90AF909F908F907F909C
:100C20006F905F904F903F902F9008950F931F9378
:100C300006E515E0C80140E052EC61E070E00E947A
:100C40003707C80166E871E00E94ED00C80165EC55
:100C500071E00E94ED008BE061E00E94EA0981E012
:100C600060E00E94EA0982E060E00E94EA098DE00B
:100C700061E00E94EA090E94580280E090E060E092
:100C800070E00E944A020E94910288EE91E00E9468
:100C9000CE0280E090E062E070E00E944A0280E0D4
:100CA00091E00E94CE0280E090E064E070E00E945B
:100CB0004A0281EF91E00E94CE020E947F09609378
:100CC000FA037093FB038093FC039093FD0325E0EC
:100CD00030E030939D0420939C0488E893E1909346
:100CE000AB048093AA0482E090E09093A3048093E5
:100CF000A204309395042093940480E293E0A0E052
:100D0000B0E08093AC049093AD04A093AE04B09394
:100D1000AF0481E090E09093A7048093A604109222
:100D20009E0410929F041092A0041092A10480EAE5
:100D300099E0A1E0B0E08093C6049093C704A0932B
:100D4000C804B093C9041F910F91089508951F928C
:100D50000F920FB60F9211242F933F934F938F93BF
:100D60009F93EF93FF934091C60020910E05309121
:100D70000F052F5F3F4F2F733070809110059091BA
:100D800011052817390759F0E0910E05F0910F056C
:100D9000E253FB4F408330930F0520930E05FF91E4
:100DA000EF919F918F914F913F912F910F900FBE97
:100DB0000F901F901895E0916205F0916305E05C3B
:100DC000FF4F8191919120813181821B930B8F7311
:100DD0009070892B11F00E94A60608951F920F9221
:100DE0000FB60F9211242F933F934F935F936F93FE
:100DF0007F938F939F93AF93BF93EF93FF93209134
:100E0000520530915305809154059091550528174E
:100E1000390731F48091C1008F7D8093C10016C0E5
:100E2000E0915405F0915505EE5EFA4F40818091B6
:100E3000540590915505019660E470E00E94180BEE
:100E400090935505809354054093C600FF91EF9110
:100E5000BF91AF919F918F917F916F915F914F91D2
:100E60003F912F910F900FBE0F901F901895AF924A
:100E7000BF92DF92EF92FF920F931F93CF93DF9376
:100E8000EC017A018B01DD24403081EE580780E0CF
:100E9000680780E0780711F0DD24D39491E0A92E53
:100EA000B12CEC89FD89DD2069F0C5010E8C02C0F2
:100EB000880F991F0A94E2F7808360E079E08DE360
:100EC00090E005C0108260E874E88EE190E0A8012F
:100ED00097010E942B0B21503040404050405695C6
:100EE00047953795279580E12030380720F0DD20A1
:100EF00011F0DD24D6CFE889F9893083EA89FB89AE
:100F00002083EE89FF89408121E030E0C9010A8C0D
:100F100002C0880F991F0A94E2F7482B4083EE899C
:100F2000FF894081C9010B8C02C0880F991F0A9468
:100F3000E2F7482B4083EE89FF894081C9010C8C80
:100F400002C0880F991F0A94E2F7482B4083EE896C
:100F5000FF8980810D8C02C0220F331F0A94E2F7B3
:100F6000209528232083DF91CF911F910F91FF902F
:100F7000EF90DF90BF90AF900895DC011C96ED914B
:100F8000FC911D97E05CFF4F21913191808191810F
:100F9000281B390B2F733070C9010895DC011C9692
:100FA000ED91FC911D97E05CFF4F20813181E05471
:100FB000F040DF01AE5BBF4F8D919C9111972817D8
:100FC000390719F42FEF3FEF07C08D919C91E80F7F
:100FD000F91F8081282F30E0C9010895DC011C969B
:100FE000ED91FC911D97E05CFF4F20813181E05431
:100FF000F040DF01AE5BBF4F8D919C911197281798
:10100000390719F42FEF3FEF10C08D919C91119784
:10101000E80FF91F20818D919C91119701968F7394
:10102000907011969C938E9330E0C9010895FC0155
:1010300086859785DC01A05CBF4FFC01EE5BFF4F0E
:101040002D913C9111978081918128173907C1F723
:101050000895CF93DF93EC01462FEE85FF85E05C8A
:10106000FF4F80819181E054F040019660E470E090
:101070000E94180B9C01DF01AE5BBF4F8D919C91CC
:10108000119728173907D1F3E05CFF4F80819181D8
:10109000E054F040E80FF91F4083EE85FF85E05CE7
:1010A000FF4F31832083EE89FF89208181E090E02A
:1010B0000D8C02C0880F991F0A94E2F7282B208319
:1010C00081E090E0DF91CF91089510925905109240
:1010D000580588EE93E0A0E0B0E080935A05909325
:1010E0005B05A0935C05B0935D0589EE93E090935A
:1010F0005705809356058EEC94E09093630580939A
:10110000620582E195E0909365058093640585EC26
:1011100090E0909367058093660584EC90E090934F
:1011200069058093680580EC90E090936B0580934F
:101130006A0581EC90E090936D0580936C0586ECD8
:1011400090E090936F0580936E0584E08093700526
:1011500083E08093710587E08093720585E080933A
:10116000730581E0809374050895CF92DF92EF922A
:10117000FF920F931F93CF93DF937C016B018A0142
:10118000C0E0D0E00FC0D6016D916D01D701ED91A7
:10119000FC910190F081E02DC7010995C80FD91F7E
:1011A000015010400115110571F7CE01DF91CF916B
:1011B0001F910F91FF90EF90DF90CF9008952F92A5
:1011C0003F924F925F926F927F928F929F92AF92D7
:1011D000BF92CF92DF92EF92FF920F931F93DF9314
:1011E000CF93CDB7DEB73B014C0119012A016D89C0
:1011F0007E898F89988D6A197B098C099D09621AED
:10120000730A840A950AA40193010E94F90AE2185C
:10121000F30804091509A80197010E944D0B2A0D36
:101220003B1D4C1D5D1DB901CA01CF91DF911F917E
:101230000F91FF90EF90DF90CF90BF90AF909F9075
:101240008F907F906F905F904F903F902F90089578
:10125000CF93DF930E948D090E941606CBEDD6E056
:101260000E94DB022097E1F30E94DB06F9CF1F9278
:101270000F920FB60F9211242F933F938F939F934A
:10128000AF93BF938091790590917A05A0917B05EA
:10129000B0917C0530917D050196A11DB11D232FD4
:1012A0002D5F2D3720F02D570196A11DB11D2093E4
:1012B0007D058093790590937A05A0937B05B09383
:1012C0007C058091750590917605A0917705B09188
:1012D00078050196A11DB11D809375059093760543
:1012E000A0937705B0937805BF91AF919F918F91AF
:1012F0003F912F910F900FBE0F901F9018958FB7B1
:10130000F8942091790530917A0540917B055091B0
:101310007C058FBFB901CA010895789484B58260B5
:1013200084BD84B5816084BD85B5826085BD85B589
:10133000816085BDEEE6F0E0808181608083E1E838
:10134000F0E0108280818260808380818160808370
:10135000E0E8F0E0808181608083E1EBF0E0808173
:1013600084608083E0EBF0E0808181608083EAE745
:10137000F0E08081846080838081826080838081CE
:10138000816080838081806880831092C10008958D
:10139000982F8E3008F09E509770809104028295AD
:1013A000880F880F807C892B80937C0080917A0045
:1013B000806480937A0080917A0086FDFCCF209132
:1013C000780040917900942F80E030E0282B392B71
:1013D000C9010895482F50E0CA0186569F4FFC016D
:1013E00024914A575F4FFA0184918823C1F0E82F76
:1013F000F0E0EE0FFF1FE859FF4FA591B49166236F
:1014000041F49FB7F8948C91209582238C939FBFD1
:1014100008959FB7F8948C91822B8C939FBF089569
:10142000482F50E0CA0182559F4FFC012491CA0108
:1014300086569F4FFC0194914A575F4FFA013491B1
:10144000332309F440C0222351F1233071F02430BA
:1014500028F42130A1F0223011F514C02630B1F06B
:101460002730C1F02430D9F404C0809180008F77F8
:1014700003C0809180008F7D8093800010C084B570
:101480008F7702C084B58F7D84BD09C08091B00084
:101490008F7703C08091B0008F7D8093B000E32FE1
:1014A000F0E0EE0FFF1FEE58FF4FA591B4912FB75C
:1014B000F894662321F48C919095892302C08C9135
:1014C000892B8C932FBF0895682F70E0CB01825534
:1014D0009F4FFC012491CB0186569F4FFC01449104
:1014E0006A577F4FFB019491992319F420E030E073
:1014F0003CC0222351F1233071F0243028F42130F4
:10150000A1F0223011F514C02630B1F02730C1F01F
:101510002430D9F404C0809180008F7703C080917B
:1015200080008F7D8093800010C084B58F7702C0CB
:1015300084B58F7D84BD09C08091B0008F7703C0D2
:101540008091B0008F7D8093B000892F90E0880F4C
:10155000991F84589F4FFC01A591B4918C9120E074
:1015600030E0842311F021E030E0C9010895BF92FA
:10157000CF92DF92EF92FF920F931F93CF93DF935F
:10158000E82EF62EB42EC7E0D0E0022F10E087E060
:10159000C82ED12CBB2059F4B6016C1B7D0BC801A1
:1015A00002C0959587956A95E2F7BC0107C0B8011E
:1015B0000C2E02C0759567950A94E2F761708E2D26
:1015C0000E94100A8F2D61E00E94100A8F2D60E0AA
:1015D0000E94100A21979FEFCF3FD907D9F6DF91DC
:1015E000CF911F910F91FF90EF90DF90CF90BF9020
:1015F0000895629FD001739FF001829FE00DF11D5D
:10160000649FE00DF11D929FF00D839FF00D749F7C
:10161000F00D659FF00D9927729FB00DE11DF91F28
:10162000639FB00DE11DF91FBD01CF011124089585
:1016300097FB092E07260AD077FD04D049D006D0A3
:1016400000201AF4709561957F4F0895F6F79095F4
:1016500081959F4F0895A1E21A2EAA1BBB1BFD0185
:101660000DC0AA1FBB1FEE1FFF1FA217B307E40781
:10167000F50720F0A21BB30BE40BF50B661F771FD9
:10168000881F991F1A9469F76095709580959095B9
:101690009B01AC01BD01CF01089597FB092E0526E2
:1016A0000ED057FD04D0D7DF0AD0001C38F4509577
:1016B0004095309521953F4F4F4F5F4F0895F6F776
:1016C00090958095709561957F4F8F4F9F4F0895AE
:1016D000AA1BBB1B51E107C0AA1FBB1FA617B70758
:1016E00010F0A61BB70B881F991F5A95A9F7809574
:1016F0009095BC01CD010895EE0FFF1F0590F49168
:10170000E02D0994AEE0B0E0E8E8FBE00C94620E56
:101710000D891E898F89988D97FF02C080E090E81F
:1017200001979E838D831A83098386E08C839E01B3
:10173000255E3F4FCE010196698D7A8DA9010E94E9
:10174000D70B4D815E8157FD0AC02F813885421726
:1017500053070CF49A01020F131FF80110822E9602
:10176000E4E00C947E0EAEE0B0E0E9EBFBE00C941C
:10177000620E0D891E8986E08C831A8309838FEFA0
:101780009FE79E838D839E01275E3F4FCE0101968A
:101790006F89788DA9010E94D70B2F813885020FA0
:1017A000131FF80110822E96E4E00C947E0EABE03D
:1017B000B0E0EDEDFBE00C94540E3C012B015A011E
:1017C000FC0117821682838181FD03C06FEF7FEFDA
:1017D000C6C19AE0892E1E010894211C311CF30118
:1017E0002381F20123FD859123FF81912F0188231D
:1017F00009F4B2C1853239F423FD859123FF81912B
:101800002F01853229F490E0B3010E94CA0DE7CF81
:10181000982FFF24EE249924FFE1FF15D0F09B328E
:1018200069F09C3228F4903259F0933291F40EC052
:101830009D3249F0903369F441E024C052E0F52A2A
:1018400084E0F82A28C098E0F92A25C0E0E1FE2AC1
:1018500022C0F7FC29C0892F80538A3070F4F6FE2D
:1018600005C0989C902C1124980E15C0E89CE02C83
:101870001124E80EF0E2FF2A0EC09E3229F4F6FC95
:101880006BC140E4F42A07C09C3619F450E8F52AED
:1018900002C0983649F4F20123FD959123FF9191FE
:1018A0002F01992309F0B8CF892F8554833018F080
:1018B0008052833038F444E050E0A40EB51E5FE35C
:1018C00059830FC0933631F0933779F0933509F08F
:1018D00056C020C0F5018081898342E050E0A40E0B
:1018E000B51E610101E010E012C0F501C080D18099
:1018F000F6FC03C06FEF7FEF02C0692D70E042E09D
:1019000050E0A40EB51EC6010E94BF0D8C015FE71A
:10191000F52214C0F501C080D180F6FC03C06FEF42
:101920007FEF02C0692D70E042E050E0A40EB51ECA
:10193000C6010E94B40D8C0150E8F52AF3FE07C0E1
:101940001AC080E290E0B3010E94CA0DEA948E2D85
:1019500090E008171907A8F30EC0F601F7FC85916F
:10196000F7FE81916F0190E0B3010E94CA0DE11072
:10197000EA94015010400115110579F7EAC0943638
:1019800011F0993669F5F7FE08C0F5012081318123
:101990004281538184E090E00AC0F5018081918109
:1019A0009C01442737FD4095542F82E090E0A80E1B
:1019B000B91E9FE6F92257FF09C050954095309512
:1019C00021953F4F4F4F5F4FE0E8FE2ACA01B90112
:1019D000A1012AE030E00E94F60DD82ED21840C0B6
:1019E000953729F41F2D1F7E2AE030E01DC01F2DE2
:1019F000197F9F3661F0903720F4983509F0ACC01C
:101A00000FC0903739F0983709F0A6C004C028E01D
:101A100030E00AC0106114FD146020E130E004C021
:101A200014FD166020E132E017FF08C0F501608167
:101A300071818281938144E050E008C0F50180818A
:101A40009181BC0180E090E042E050E0A40EB51E20
:101A5000A1010E94F60DD82ED2188FE7F82EF122A0
:101A6000F6FE0BC05EEFF522D91438F4F4FE07C081
:101A7000F2FC05C08FEEF82202C01D2D01C0192D09
:101A8000F4FE0DC0FE01ED0DF11D8081803319F4CF
:101A900099EEF92208C01F5FF2FE05C003C08F2D2A
:101AA000867809F01F5F0F2DF3FC14C0F0FE0FC005
:101AB0001E1510F09D2C0BC09D2C9E0C911A1E2DF6
:101AC00006C080E290E0B3010E94CA0D1F5F1E15A0
:101AD000C0F304C01E1510F4E11A01C0EE2404FF87
:101AE0000FC080E390E0B3010E94CA0D02FF1DC049
:101AF00001FD03C088E790E00EC088E590E00BC0D0
:101B0000802F867891F001FF02C08BE201C080E255
:101B1000F7FC8DE290E0B3010E94CA0D06C080E39D
:101B200090E0B3010E94CA0D9A94D914C0F3DA94DC
:101B3000F101ED0DF11D808190E0B3010E94CA0D0D
:101B4000DD20A9F706C080E290E0B3010E94CA0D33
:101B5000EA94EE20C1F743CEF30166817781CB0191
:101B60002B96E2E10C94700EFC01059061507040E0
:101B70000110D8F7809590958E0F9F1F0895FC0156
:101B80006150704001900110D8F7809590958E0FAC
:101B90009F1F08950F931F93CF93DF938C01EB0149
:101BA0008B8181FF1BC082FF0DC02E813F818C8104
:101BB0009D812817390764F4E881F9810193F9833D
:101BC000E88306C0E885F985802F0995892B31F4D3
:101BD0008E819F8101969F838E8302C00FEF1FEF3E
:101BE000C801DF91CF911F910F910895FA01AA27A3
:101BF000283051F1203181F1E8946F936E7F6E5F50
:101C00007F4F8F4F9F4FAF4FB1E03ED0B4E03CD0FD
:101C1000670F781F891F9A1FA11D680F791F8A1FE0
:101C2000911DA11D6A0F711D811D911DA11D20D047
:101C300009F468943F912AE0269F11243019305D01
:101C40003193DEF6CF010895462F4770405D4193F2
:101C5000B3E00FD0C9F7F6CF462F4F70405D4A333F
:101C600018F0495D31FD4052419302D0A9F7EACF07
:101C7000B4E0A6959795879577956795BA95C9F736
:101C800000976105710508959B01AC010A2E069429
:101C90005795479537952795BA95C9F7620F731FE2
:101CA000841F951FA01D08952F923F924F925F921F
:101CB0006F927F928F929F92AF92BF92CF92DF925C
:101CC000EF92FF920F931F93CF93DF93CDB7DEB7C1
:101CD000CA1BDB0B0FB6F894DEBF0FBECDBF099455
:101CE0002A88398848885F846E847D848C849B84AC
:101CF000AA84B984C884DF80EE80FD800C811B81BA
:101D0000AA81B981CE0FD11D0FB6F894DEBF0FBEE8
:0A1D1000CDBFED010895F894FFCF58
:101D1A0053706565643A00506F7765723A002564BE
:101D2A002E2530326420416D70730020202020203F
:101D3A0020202020202000256C642E2530316C6460
:101D4A002052504D00256C642E2530316C6420578A
:101D5A006174747300256C642E2530326C642056CD
:101D6A006F6C7473003C723E256C752E2530336C93
:101D7A007509256C642E2530336C640925640925A0
:101D8A006C6409256C642E2530336C6409256C64F7
:101D9A003C2F723E0A003C683E74696D6509737097
:101DAA006565640963757272656E7409637572722A
:101DBA00656E745F73656E736509766F6C746167BF
:101DCA006509766F6C746167655F73656E73653CF0
:101DDA002F683E0A003C753E6D730972706D096D7D
:101DEA004109636F756E747309766F6C7473096356
:101DFA0074733C2F753E0A0043757272656E743AAD
:101E0A0000566F6C746167653A00E8030A00640063
:101E1A00D007010001000000000000005F00000080
:101E2A0007000700147F147F14242A7F2A12231321
:101E3A0008646236495522500005030000001C223E
:101E4A0041000041221C0014083E081408083E08FC
:101E5A000800503000000808080808006060000008
:101E6A0020100804023E5149453E00427F4000428C
:101E7A00615149462141454B311814127F102745BB
:101E8A004545393C4A4949300171090503364949F2
:101E9A004936064949291E003636000000563600E2
:101EAA0000081422410014141414140041221408C6
:101EBA000201510906324979413E7E1111117E7F94
:101ECA00494949363E414141227F4141221C7F49CD
:101EDA004949417F090909013E4149497A7F080870
:101EEA00087F00417F41002040413F017F081422C2
:101EFA00417F404040407F020C027F7F0408107FF0
:101F0A003E4141413E7F090909063E4151215E7F1A
:101F1A0009192946464949493101017F01013F40D2
:101F2A0040403F1F2040201F3F4038403F63140875
:101F3A00146307087008076151494543007F41410E
:101F4A000002040810200041417F0004020102043B
:101F5A004040404040000102040020545454787F1D
:101F6A00484444383844444420384444487F385428
:101F7A00545418087E0901020C5252523E7F08043A
:101F8A00047800447D40002040443D007F102844EE
:101F9A000000417F40007C041804787C080404781F
:101FAA0038444444387C14141408081414187C7CEB
:101FBA00080404084854545420043F4440203C4038
:101FCA0040207C1C2040201C3C4030403C442810CF
:101FDA0028440C5050503C4464544C440008364148
:101FEA000000007F000000413608001008081008B1
:101FFA007846414678000000002908B508BD07EE7A
:06200A0007CE07170800D5
:00000001FF
