:100000000C9462000C948A000C948A000C948A0070
:100010000C948A000C948A000C948A000C948A0038
:100020000C948A000C948A000C948A000C948A0028
:100030000C948A000C948A000C948A000C948A0018
:100040000C9493080C948A000C9403060C944A06B2
:100050000C948A000C948A000C948A000C948A00F8
:100060000C948A000C948A000000000024002700F1
:100070002A0000000000250028002B0000000000DE
:1000800023002600290004040404040404040202DA
:100090000202020203030303030301020408102007
:1000A0004080010204081020010204081020000012
:1000B0000007000201000003040600000000000029
:1000C0000000C10711241FBECFEFD8E0DEBFCDBFB7
:1000D00013E0A0E0B1E0E2EDFBE102C005900D927B
:1000E000AA3DB107D9F715E0AAEDB3E001C01D9212
:1000F000AA35B107E1F710E0C4ECD0E004C02297C4
:10010000FE010E94DA0AC23CD107C9F70E948408A6
:100110000C94E70D0C940000EF92FF920F931F9345
:10012000CF93DF938B019C01EA014A895B894115DA
:10013000510509F44BC08E819F81A885B98578014E
:100140008901E81AF90A0A0B1B0B888D998DA0E02A
:10015000B0E08E159F05A007B10728F41C861D8608
:100160001E861F8633C0CA01AA2797FDA095BA2F05
:100170006C897D898E159F05A007B10790F49B01BE
:10018000442737FD4095542FC801B7010E94550AF6
:100190009B01AC0160E472E48FE090E00E94870A6A
:1001A00011C0469F9001479F300D569F300D11247E
:1001B000442737FD4095542F60E472E48FE090E0CF
:1001C0000E94A90A2C873D874E875F87DF91CF91D8
:1001D0001F910F91FF90EF900895CF93DF93DB0174
:1001E0000D900020E9F71197A61BB70BEC01E881F1
:1001F000F9810280F381E02DAD010995DF91CF9166
:1002000008958F929F92AF92BF92CF92DF92EF921A
:10021000FF920F931F934C01FC01628173818481D3
:10022000958120E233E040E050E00E94550A7B01D6
:100230008C0181E00E942409AA2797FDA095BA2F7E
:10024000BC01CD0128EC30E040E050E00E94550AAE
:100250006E0D7F1D801F911F28EE33E040E050E0BF
:100260000E94A90ACA01F40122833383448395833F
:1002700000D000D04681578160857185EDB7FEB70B
:100280004183528363837483B90120E030E040E00E
:1002900050E0EFEFEE2EE3E0FE2E012D112DAA240B
:1002A000BB2465010E943B08F40162877387848741
:1002B00095870F900F900F900F901F910F91FF90C7
:1002C000EF90DF90CF90BF90AF909F908F90089568
:1002D0008F929F92AF92BF92CF92DF92EF92FF9256
:1002E0000F931F934C0183E00E9424095C01D40109
:1002F00014966D917D918D919C91179720E233E03A
:1003000040E050E00E94550A7B018C0188E89AEF9A
:10031000AFEFBFEFE80EF91E0A1F1B1FCC24B7FC7E
:10032000C094DC2CC601B50128EC30E040E050E080
:100330000E94550AE60EF71E081F191FC801B701D3
:1003400028EE33E040E050E00E94A90ACA01D4013F
:1003500014962C93149715963C93159716964C93D8
:10036000169717969C9300D000D048EA51E660E0BB
:1003700070E0EDB7FEB74183528363837483B901A4
:1003800020E030E040E050E0AFEFEA2EA3E0FA2EAC
:10039000012D112DF8E5AF2EFEE9BF2EFFEFCF2E78
:1003A000FFEFDF2E0E943B08D4011F967C936E93D3
:1003B0001E970F900F900F900F901F910F91FF902D
:1003C000EF90DF90CF90BF90AF909F908F90089567
:1003D000EF92FF920F931F93CF93DF937B018C01DA
:1003E000EA0188890E94C00928813981892B69F432
:1003F0008A819B81281739071CF42F5F3F4F0AC061
:1004000081E090E09D838C830AC0121613062CF4C1
:10041000215030403983288302C01D821C826C81A8
:100420007D818E899F898617970791F08DE00E94C4
:100430006C098C819D81892B59F48E819F81970154
:10044000281B390B3B8B2A8BEE82FF82088719878A
:100450008C819D819F8B8E8BDF91CF911F910F910E
:10046000FF90EF9008951F93982F162F86E0692F25
:100470000E946C0984E060E00E946C0987E068E0FB
:1004800041E0212F0E94130A84E061E00E946C0980
:100490001F9108951F93162F682F606880E00E94B7
:1004A0003302106480E0612F0E9433021F9108958F
:1004B00084E061E00E94460985E061E00E9446090F
:1004C00086E061E00E94460987E061E00E944609FB
:1004D00088E061E00E94460985E060E00E946C09C6
:1004E00085E061E00E946C0980E061E20E943302D5
:1004F00080E061EB0E94330280E064E00E943302FE
:1005000080E064E10E94330280E06CE00E943302EC
:1005100080E060E20E94330280E06CE00E943302DF
:100520000895CF93DF93C0E0D0E081E060E00E94C7
:100530003302219681E0C83FD807B9F7DF91CF9108
:1005400008950F931F93CF93DF93182F81E060E0FE
:100550000E943302812F992787FD90958097EC01A7
:10056000CC0FDD1FCC0FDD1FC80FD91FC651DE4FCA
:1005700085E0180280011124015B1E4F81E0699122
:100580000E943302C017D107C9F781E060E00E94E2
:100590003302DF91CF911F910F910895CF93DF9395
:1005A000EC0103C021960E94A10288818823D1F723
:1005B000DF91CF9108952F923F924F925F926F9269
:1005C0007F928F929F92AF92BF92CF92DF92EF92E3
:1005D000FF920F931F93CF93DF930E94DB081B01C1
:1005E0002C018091E2039091E303A091E403B09188
:1005F000E503281639064A065B0608F460C2019630
:10060000A11DB11D8093E2039093E303A093E40343
:10061000B093E503C201B1014EE654E00E94E80147
:100620008091DE039091DF03A091E003B091E1039C
:10063000281639064A065B0610F18091E501909173
:10064000E601AA2797FDA095BA2F820D931DA41D40
:10065000B51D8093DE039093DF03A093E003B09376
:10066000E103C201B1014EE654E00E948C008CE827
:1006700094E00E9468018CE994E00E94010180915D
:10068000E6039091E703A091E803B091E9032816EF
:1006900039064A065B0608F438C18091E30190915F
:1006A000E401AA2797FDA095BA2F820D931DA41DE2
:1006B000B51D8093E6039093E703A093E803B093FE
:1006C000E90340919A04E0919B048DB79EB70A9785
:1006D0000FB6F8949EBF0FBE8DBFCDB7DEB7219683
:1006E0008EEE93E0ADB7BEB712969C938E931197A2
:1006F0008BE090E09B838A8380E091E09D838C83F4
:10070000842F9E2F68EE73E00E94740A7F836E83AD
:10071000242F3E2FC90197FF03C0909581959F4FCD
:1007200068EE73E00E94740A6AE070E00E94740A46
:10073000798768870E94DE0AEDB7FEB73A960FB652
:10074000F894FEBF0FBEEDBF86E090E061E070E080
:100750000E944A028DE091E00E94CE0286E090E085
:1007600061E070E00E944A029EEEA92E93E0B92E4D
:10077000C5010E94CE0260917A0470917B04809141
:100780007C0490917D042CE330E040E050E00E9436
:10079000550A6B017C018DB79EB70E970FB6F89482
:1007A0009EBF0FBE8DBF0DB71EB70F5F1F4FADB7FA
:1007B000BEB71296BC92AE9211978BE090E0F80112
:1007C0009383828389E191E095838483C701B60195
:1007D00028EE33E040E050E00E94A90AD8011696C6
:1007E0002D933D934D935C931997C701B60128EE65
:1007F00033E040E050E00E94A90A24E630E040E007
:1008000050E00E94A90AF801228733874487558760
:100810000E94DE0A8DB79EB70E960FB6F8949EBF63
:100820000FBE8DBF86E090E063E070E00E944A0258
:100830008DE091E00E94CE0286E090E063E070E0FF
:100840000E944A02C5010E94CE02C090A604D09028
:10085000A704E090A804F090A904ADB7BEB71E9716
:100860000FB6F894BEBF0FBEADBF0DB71EB70F5F7A
:100870001F4F1296BC92AE9211978CE090E0F80157
:100880009383828387E291E095838483C701B601D5
:1008900028EE33E040E050E00E94A90AD801169605
:1008A0002D933D934D935C931997C701B60128EEA4
:1008B00033E040E050E00E94A90A2AE030E040E046
:1008C00050E00E94A90AF8012287338744875587A0
:1008D0000E94DE0A8DB79EB70E960FB6F8949EBFA3
:1008E0000FBE8DBF86E090E065E070E00E944A0296
:1008F0008DE091E00E94CE0286E090E065E070E03D
:100900000E944A02C5010E94CE028091EA039091A2
:10091000EB03A091EC03B091ED03281639064A06CB
:100920005B0608F4CCC08091E7019091E801AA270A
:1009300097FDA095BA2F820D931DA41DB51D809320
:10094000EA039093EB03A093EC03B093ED03609163
:100950007A0470917B0480917C0490917D042CE357
:1009600030E040E050E00E94550A6B017C0180902D
:10097000A6049090A704A090A804B090A904ADB7D5
:10098000BEB796970FB6F894BEBF0FBEADBF0DB7FA
:100990001EB70F5F1F4F8EEE682E83E0782E1296E3
:1009A0007C926E92119787E391E0F80193838283A2
:1009B000C201B10128EE33E040E050E00E94870A16
:1009C000D80114962D933D934D935C931797C201D4
:1009D000B10128EE33E040E050E00E94870AF801C0
:1009E0006087718782879387C701B60128EE33E05D
:1009F00040E050E00E94A90AD8011C962D933D9337
:100A00004D935C931F97C701B60128EE33E040E099
:100A100050E00E94A90A2AE030E040E050E00E9445
:100A2000A90AF801208B318B428B538B80919A0459
:100A300090919B04958B848B80919004909191046C
:100A4000A0919204B0919304868B978BA08FB18F65
:100A5000C501B40128EE33E040E050E00E94A90A4D
:100A6000D8015A962D933D934D935C935D97C501A4
:100A7000B40128EE33E040E050E00E94A90AF801FA
:100A8000668F778F80A391A380919E0490919F049D
:100A9000A091A004B091A10482A393A3A4A3B5A3A1
:100AA0000E940F0B8DB79EB786960FB6F8949EBF27
:100AB0000FBE8DBF82E395E0B3010E94ED00DF9190
:100AC000CF911F910F91FF90EF90DF90CF90BF904B
:100AD000AF909F908F907F906F905F904F903F90DE
:100AE0002F9008950F931F9302E315E0C80140E093
:100AF00052EC61E070E00E949306C80168E671E084
:100B00000E94ED00C80167EA71E00E94ED008BE0F1
:100B100061E00E94460981E060E00E94460982E0AF
:100B200060E00E9446098DE061E00E9446090E9453
:100B3000580280E090E060E070E00E944A020E946B
:100B400091028AEC91E00E94CE0280E090E062E0A7
:100B500070E00E944A0283ED91E00E94CE0280E0A4
:100B600090E064E070E00E944A028AED91E00E9409
:100B7000CE020E94DB086093DA037093DB0380935C
:100B8000DC039093DD0325E030E03093790420937B
:100B9000780488E893E1909387048093860482E048
:100BA00090E090937F0480937E04309371042093AF
:100BB000700480E293E0A0E0B0E08093880490931A
:100BC0008904A0938A04B0938B0481E090E0909311
:100BD00083048093820410927A0410927B04109212
:100BE0007C0410927D0480EA99E0A1E0B0E080935B
:100BF000A2049093A304A093A404B093A5041F910E
:100C00000F91089508951F920F920FB60F9211241D
:100C10002F933F934F938F939F93EF93FF93409125
:100C2000C6002091EA043091EB042F5F3F4F2F73F1
:100C300030708091EC049091ED042817390759F039
:100C4000E091EA04F091EB04E655FB4F40833093CA
:100C5000EB042093EA04FF91EF919F918F914F91C4
:100C60003F912F910F900FBE0F901F901895E0911C
:100C70003E05F0913F05E05CFF4F8191919120810D
:100C80003181821B930B8F739070892B11F00E941E
:100C9000020608951F920F920FB60F9211242F9300
:100CA0003F934F935F936F937F938F939F93AF93F4
:100CB000BF93EF93FF9320912E0530912F058091E4
:100CC0003005909131052817390731F48091C10022
:100CD0008F7D8093C10016C0E0913005F091310501
:100CE000E251FB4F40818091300590913105019692
:100CF00060E470E00E94740A90933105809330059F
:100D00004093C600FF91EF91BF91AF919F918F915A
:100D10007F916F915F914F913F912F910F900FBEF7
:100D20000F901F901895AF92BF92DF92EF92FF92B3
:100D30000F931F93CF93DF93EC017A018B01DD2496
:100D4000403081EE580780E0680780E0780711F0B6
:100D5000DD24D39491E0A92EB12CEC89FD89DD200E
:100D600069F0C5010E8C02C0880F991F0A94E2F742
:100D7000808360E079E08DE390E005C0108260E858
:100D800074E88EE190E0A80197010E94870A215043
:100D9000304040405040569547953795279580E123
:100DA0002030380720F0DD2011F0DD24D6CFE8898F
:100DB000F9893083EA89FB892083EE89FF894081A4
:100DC00021E030E0C9010A8C02C0880F991F0A9403
:100DD000E2F7482B4083EE89FF894081C9010B8CE3
:100DE00002C0880F991F0A94E2F7482B4083EE89CE
:100DF000FF894081C9010C8C02C0880F991F0A9499
:100E0000E2F7482B4083EE89FF8980810D8C02C078
:100E1000220F331F0A94E2F7209528232083DF91C5
:100E2000CF911F910F91FF90EF90DF90BF90AF9007
:100E30000895DC011C96ED91FC911D97E05CFF4F3D
:100E40002191319180819181281B390B2F73307052
:100E5000C9010895DC011C96ED91FC911D97E05CA1
:100E6000FF4F20813181E054F040DF01AE5BBF4F86
:100E70008D919C9111972817390719F42FEF3FEFA7
:100E800007C08D919C91E80FF91F8081282F30E0D9
:100E9000C9010895DC011C96ED91FC911D97E05C61
:100EA000FF4F20813181E054F040DF01AE5BBF4F46
:100EB0008D919C9111972817390719F42FEF3FEF67
:100EC00010C08D919C911197E80FF91F20818D9191
:100ED0009C91119701968F73907011969C938E93AD
:100EE00030E0C9010895FC0186859785DC01A05C8E
:100EF000BF4FFC01EE5BFF4F2D913C91119780811C
:100F0000918128173907C1F70895CF93DF93EC013A
:100F1000462FEE85FF85E05CFF4F80819181E05494
:100F2000F040019660E470E00E94740A9C01DF01C9
:100F3000AE5BBF4F8D919C91119728173907D1F364
:100F4000E05CFF4F80819181E054F040E80FF91F91
:100F50004083EE85FF85E05CFF4F31832083EE897F
:100F6000FF89208181E090E00D8C02C0880F991FDD
:100F70000A94E2F7282B208381E090E0DF91CF9163
:100F80000895109235051092340588EE93E0A0E0A4
:100F9000B0E08093360590933705A0933805B09361
:100FA00039058EEC93E090933305809332058AEAFD
:100FB00094E090933F0580933E058EEE94E09093ED
:100FC00041058093400585EC90E090934305809324
:100FD000420584EC90E0909345058093440580ECB5
:100FE00090E0909347058093460581EC90E09093C4
:100FF00049058093480586EC90E090934B058093DB
:101000004A0584E080934C0583E080934D0587E09A
:1010100080934E0585E080934F0581E080935005D5
:101020000895CF92DF92EF92FF920F931F93CF9389
:10103000DF937C016B018A01C0E0D0E00FC0D601D4
:101040006D916D01D701ED91FC910190F081E02D42
:10105000C7010995C80FD91F01501040011511058E
:1010600071F7CE01DF91CF911F910F91FF90EF901B
:10107000DF90CF9008952F923F924F925F926F92A0
:101080007F928F929F92AF92BF92CF92DF92EF9218
:10109000FF920F931F93DF93CF93CDB7DEB73B0142
:1010A0004C0119012A016D897E898F89988D6A19F1
:1010B0007B098C099D09621A730A840A950AA401A6
:1010C00093010E94550AE218F30804091509A801C2
:1010D00097010E94A90A2A0D3B1D4C1D5D1DB901F7
:1010E000CA01CF91DF911F910F91FF90EF90DF9098
:1010F000CF90BF90AF909F908F907F906F905F90B8
:101100004F903F902F900895CF93DF930E94E9086E
:101110000E947205C7E3D6E00E94DB022097E1F34C
:101120000E943706F9CF1F920F920FB60F9211242B
:101130002F933F938F939F93AF93BF9380915505C8
:1011400090915605A0915705B091580530915905D9
:101150000196A11DB11D232F2D5F2D3720F02D5796
:101160000196A11DB11D20935905809355059093BB
:101170005605A0935705B09358058091510590915D
:101180005205A0915305B09154050196A11DB11DC2
:101190008093510590935205A0935305B093540545
:1011A000BF91AF919F918F913F912F910F900FBE63
:1011B0000F901F9018958FB7F89420915505309196
:1011C000560540915705509158058FBFB901CA0186
:1011D0000895789484B5826084BD84B5816084BDAF
:1011E00085B5826085BD85B5816085BDEEE6F0E0A0
:1011F000808181608083E1E8F0E0108280818260FC
:101200008083808181608083E0E8F0E0808181607C
:101210008083E1EBF0E0808184608083E0EBF0E0AC
:10122000808181608083EAE7F0E080818460808350
:1012300080818260808380818160808380818068FA
:1012400080831092C1000895982F8E3008F09E5030
:1012500097708091E9018295880F880F807C892B97
:1012600080937C0080917A00806480937A008091E2
:101270007A0086FDFCCF2091780040917900942F70
:1012800080E030E0282B392BC9010895482F50E029
:10129000CA0186569F4FFC0124914A575F4FFA01BD
:1012A00084918823C1F0E82FF0E0EE0FFF1FE8598A
:1012B000FF4FA591B491662341F49FB7F8948C91A8
:1012C000209582238C939FBF08959FB7F8948C91AB
:1012D000822B8C939FBF0895482F50E0CA018255FE
:1012E0009F4FFC012491CA0186569F4FFC019491A7
:1012F0004A575F4FFA013491332309F440C0222347
:1013000051F1233071F0243028F42130A1F0223043
:1013100011F514C02630B1F02730C1F02430D9F4D3
:1013200004C0809180008F7703C0809180008F7D02
:101330008093800010C084B58F7702C084B58F7D04
:1013400084BD09C08091B0008F7703C08091B00048
:101350008F7D8093B000E32FF0E0EE0FFF1FEE587B
:10136000FF4FA591B4912FB7F894662321F48C9187
:101370009095892302C08C91892B8C932FBF08955F
:10138000682F70E0CB0182559F4FFC012491CB0167
:1013900086569F4FFC0144916A577F4FFB01949101
:1013A000992319F420E030E03CC0222351F123308E
:1013B00071F0243028F42130A1F0223011F514C04E
:1013C0002630B1F02730C1F02430D9F404C0809128
:1013D00080008F7703C0809180008F7D8093800094
:1013E00010C084B58F7702C084B58F7D84BD09C0DD
:1013F0008091B0008F7703C08091B0008F7D809383
:10140000B000892F90E0880F991F84589F4FFC01EE
:10141000A591B4918C9120E030E0842311F021E07B
:1014200030E0C9010895BF92CF92DF92EF92FF9210
:101430000F931F93CF93DF93E82EF62EB42EC7E0C1
:10144000D0E0022F10E087E0C82ED12CBB2059F449
:10145000B6016C1B7D0BC80102C0959587956A95F6
:10146000E2F7BC0107C0B8010C2E02C07595679564
:101470000A94E2F761708E2D0E946C098F2D61E055
:101480000E946C098F2D60E00E946C0921979FEFEC
:10149000CF3FD907D9F6DF91CF911F910F91FF90E0
:1014A000EF90DF90CF90BF900895629FD001739F1F
:1014B000F001829FE00DF11D649FE00DF11D929FF0
:1014C000F00D839FF00D749FF00D659FF00D99272F
:1014D000729FB00DE11DF91F639FB00DE11DF91F53
:1014E000BD01CF011124089597FB092E07260AD0CC
:1014F00077FD04D049D006D000201AF4709561958C
:101500007F4F0895F6F7909581959F4F0895A1E23A
:101510001A2EAA1BBB1BFD010DC0AA1FBB1FEE1F6D
:10152000FF1FA217B307E407F50720F0A21BB30BB8
:10153000E40BF50B661F771F881F991F1A9469F734
:1015400060957095809590959B01AC01BD01CF0190
:10155000089597FB092E05260ED057FD04D0D7DF3E
:101560000AD0001C38F450954095309521953F4F96
:101570004F4F5F4F0895F6F7909580957095619560
:101580007F4F8F4F9F4F0895AA1BBB1B51E107C090
:10159000AA1FBB1FA617B70710F0A61BB70B881F03
:1015A000991F5A95A9F780959095BC01CD01089592
:1015B000EE0FFF1F0590F491E02D0994AEE0B0E02E
:1015C000E4EEFAE00C94BE0D0D891E898F89988D8A
:1015D00097FF02C080E090E801979E838D831A8375
:1015E000098386E08C839E01255E3F4FCE010196E4
:1015F000698D7A8DA9010E94330B4D815E8157FD63
:101600000AC02F813885421753070CF49A01020F44
:10161000131FF80110822E96E4E00C94DA0DAEE070
:10162000B0E0E5E1FBE00C94BE0D0D891E8986E07B
:101630008C831A8309838FEF9FE79E838D839E019E
:10164000275E3F4FCE0101966F89788DA9010E94D8
:10165000330B2F813885020F131FF80110822E964D
:10166000E4E00C94DA0DABE0B0E0E9E3FBE00C94CD
:10167000B00D3C012B015A01FC01178216828381B7
:1016800081FD03C06FEF7FEFC6C19AE0892E1E0176
:101690000894211C311CF3012381F20123FD859163
:1016A00023FF81912F01882309F4B2C1853239F4D7
:1016B00023FD859123FF81912F01853229F490E04C
:1016C000B3010E94260DE7CF982FFF24EE24992422
:1016D000FFE1FF15D0F09B3269F09C3228F4903284
:1016E00059F0933291F40EC09D3249F0903369F471
:1016F00041E024C052E0F52A84E0F82A28C098E0AE
:10170000F92A25C0E0E1FE2A22C0F7FC29C0892F72
:1017100080538A3070F4F6FE05C0989C902C1124FA
:10172000980E15C0E89CE02C1124E80EF0E2FF2A88
:101730000EC09E3229F4F6FC6BC140E4F42A07C0C7
:101740009C3619F450E8F52A02C0983649F4F201A3
:1017500023FD959123FF91912F01992309F0B8CF93
:10176000892F8554833018F08052833038F444E058
:1017700050E0A40EB51E5FE359830FC0933631F0DD
:10178000933779F0933509F056C020C0F501808178
:10179000898342E050E0A40EB51E610101E010E033
:1017A00012C0F501C080D180F6FC03C06FEF7FEF5F
:1017B00002C0692D70E042E050E0A40EB51EC601E3
:1017C0000E941B0D8C015FE7F52214C0F501C0805B
:1017D000D180F6FC03C06FEF7FEF02C0692D70E08F
:1017E00042E050E0A40EB51EC6010E94100D8C010F
:1017F00050E8F52AF3FE07C01AC080E290E0B3017A
:101800000E94260DEA948E2D90E008171907A8F380
:101810000EC0F601F7FC8591F7FE81916F0190E013
:10182000B3010E94260DE110EA9401501040011509
:10183000110579F7EAC0943611F0993669F5F7FE8B
:1018400008C0F501208131814281538184E090E01C
:101850000AC0F501808191819C01442737FD4095A4
:10186000542F82E090E0A80EB91E9FE6F92257FFA0
:1018700009C050954095309521953F4F4F4F5F4F90
:10188000E0E8FE2ACA01B901A1012AE030E00E9485
:10189000520DD82ED21840C0953729F41F2D1F7E27
:1018A0002AE030E01DC01F2D197F9F3661F0903770
:1018B00020F4983509F0ACC00FC0903739F0983754
:1018C00009F0A6C004C028E030E00AC0106114FD91
:1018D000146020E130E004C014FD166020E132E025
:1018E00017FF08C0F501608171818281938144E016
:1018F00050E008C0F50180819181BC0180E090E05A
:1019000042E050E0A40EB51EA1010E94520DD82E57
:10191000D2188FE7F82EF122F6FE0BC05EEFF5220B
:10192000D91438F4F4FE07C0F2FC05C08FEEF8229B
:1019300002C01D2D01C0192DF4FE0DC0FE01ED0DDC
:10194000F11D8081803319F499EEF92208C01F5FE0
:10195000F2FE05C003C08F2D867809F01F5F0F2DA2
:10196000F3FC14C0F0FE0FC01E1510F09D2C0BC030
:101970009D2C9E0C911A1E2D06C080E290E0B301B2
:101980000E94260D1F5F1E15C0F304C01E1510F423
:10199000E11A01C0EE2404FF0FC080E390E0B30120
:1019A0000E94260D02FF1DC001FD03C088E790E0E4
:1019B0000EC088E590E00BC0802F867891F001FF83
:1019C00002C08BE201C080E2F7FC8DE290E0B3013F
:1019D0000E94260D06C080E390E0B3010E94260D10
:1019E0009A94D914C0F3DA94F101ED0DF11D8081C0
:1019F00090E0B3010E94260DDD20A9F706C080E229
:101A000090E0B3010E94260DEA94EE20C1F743CE88
:101A1000F30166817781CB012B96E2E10C94CC0D2A
:101A2000FC010590615070400110D8F780959095A9
:101A30008E0F9F1F0895FC016150704001900110AE
:101A4000D8F7809590958E0F9F1F08950F931F9341
:101A5000CF93DF938C01EB018B8181FF1BC082FF51
:101A60000DC02E813F818C819D812817390764F438
:101A7000E881F9810193F983E88306C0E885F98557
:101A8000802F0995892B31F48E819F8101969F8348
:101A90008E8302C00FEF1FEFC801DF91CF911F911E
:101AA0000F910895FA01AA27283051F1203181F1D0
:101AB000E8946F936E7F6E5F7F4F8F4F9F4FAF4F56
:101AC000B1E03ED0B4E03CD0670F781F891F9A1F69
:101AD000A11D680F791F8A1F911DA11D6A0F711D1D
:101AE000811D911DA11D20D009F468943F912AE029
:101AF000269F11243019305D3193DEF6CF01089511
:101B0000462F4770405D4193B3E00FD0C9F7F6CF41
:101B1000462F4F70405D4A3318F0495D31FD405209
:101B2000419302D0A9F7EACFB4E0A695979587959F
:101B300077956795BA95C9F700976105710508957E
:101B40009B01AC010A2E069457954795379527952A
:101B5000BA95C9F7620F731F841F951FA01D0895C2
:101B60002F923F924F925F926F927F928F929F92AD
:101B7000AF92BF92CF92DF92EF92FF920F931F939B
:101B8000CF93DF93CDB7DEB7CA1BDB0B0FB6F8944C
:101B9000DEBF0FBECDBF09942A88398848885F848C
:101BA0006E847D848C849B84AA84B984C884DF80FD
:101BB000EE80FD800C811B81AA81B981CE0FD11DE1
:101BC0000FB6F894DEBF0FBECDBFED010895F894B7
:021BD000FFCF45
:101BD20025642E2530326420416D70730020202050
:101BE200202020202020202000256C642E2530314A
:101BF2006C642052504D00256C642E2530326C648A
:101C020020566F6C7473003C723E256C752E253025
:101C1200336C7509256C642E2530336C6409256498
:101C220009256C6409256C642E2530336C64092502
:101C32006C643C2F723E0A003C683E74696D650913
:101C420073706565640963757272656E7409637594
:101C52007272656E745F73656E736509766F6C740C
:101C620061676509766F6C746167655F73656E7332
:101C7200653C2F683E0A003C753E6D730972706DBB
:101C8200096D4109636F756E747309766F6C7473B5
:101C9200096374733C2F753E0A0043757272656E58
:101CA200743A0053706565643A00566F6C746167EC
:101CB200653A00E8030A0064000100000000000029
:101CC200005F00000007000700147F147F14242A1D
:101CD2007F2A1223130864623649552250000503F5
:101CE2000000001C2241000041221C0014083E0892
:101CF2001408083E080800503000000808080808C8
:101D0200006060000020100804023E5149453E0078
:101D1200427F400042615149462141454B311814EE
:101D2200127F1027454545393C4A4949300171091E
:101D320005033649494936064949291E0036360007
:101D42000000563600000814224100141414141422
:101D520000412214080201510906324979413E7EAE
:101D62001111117E7F494949363E414141227F414D
:101D720041221C7F494949417F090909013E4149E4
:101D8200497A7F0808087F00417F41002040413F97
:101D9200017F081422417F404040407F020C027FB5
:101DA2007F0408107F3E4141413E7F090909063EFA
:101DB2004151215E7F0919294646494949310101AC
:101DC2007F01013F4040403F1F2040201F3F4038DD
:101DD200403F6314081463070870080761514945BE
:101DE20043007F41410002040810200041417F006E
:101DF200040201020440404040400001020400206D
:101E0200545454787F484444383844444420384435
:101E120044487F3854545418087E0901020C525227
:101E2200523E7F0804047800447D40002040443D37
:101E3200007F1028440000417F40007C0418047891
:101E42007C0804047838444444387C141414080888
:101E52001414187C7C080404084854545420043F89
:101E62004440203C4040207C1C2040201C3C403010
:101E7200403C44281028440C5050503C4464544C7C
:101E820044000836410000007F000000413608008F
:101E920010080810087846414678000000008507BF
:0A1EA200110819074A072A07730701
:00000001FF
