:100000000C9471000C9499000C9499000C94990034
:100010000C9499000C9499000C9499000C949900FC
:100020000C9499000C9499000C9499000C949900EC
:100030000C9499000C9499000C9499000C949900DC
:100040000C94F6060C9499000C9499000C94990069
:100050000C9499000C9499000C9499000C949900BC
:100060000C9499000C94990005A84CCDB2D44EB9CB
:100070003836A9020C50B9918688083CA6AAAA2A4B
:10008000BE000000803F00000000240027002A007E
:1000900000000000250028002B00000000002300C5
:1000A00026002900040404040404040402020202D9
:1000B000020203030303030301020408102040802B
:1000C00001020408102001020408102000000007AB
:1000D0000002010000030406000000000000000010
:1000E0009B0011241FBECFEFD8E0DEBFCDBF11E0D3
:1000F000A0E0B1E0E6E2F8E102C005900D92A83878
:10010000B107D9F712E0A8E8B1E001C01D92A73FFE
:10011000B107E1F710E0C2EED0E004C02297FE0183
:100120000E940D0CC03ED107C9F70E94E7060C944F
:10013000110C0C9400000F931F9388E792E063E08A
:1001400070E042E050E024E030E001E010E00E9486
:1001500020061F910F9108954F925F926F927F92A8
:100160008F929F92AF92BF92CF92DF92EF92FF92C7
:100170000F931F93DF93CF93CDB7DEB728970FB6BA
:10018000F894DEBF0FBECDBF5B016C012A017B017D
:100190008C0197FF07C0EE24FF248701E61AF70AB7
:1001A000080B190B80EAE81686E8F80681E00807D4
:1001B00080E0180724F422E0622E712C0FC0C801E1
:1001C000B7012AE030E040E050E00E94F00BC901A6
:1001D000DA017C018D0191E0692E712CC801B70113
:1001E0002AE030E040E050E00E94F00B65307105FD
:1001F0008CF08AE090E0A0E0B0E0E80EF91E0A1F63
:100200001B1FCB01AA2797FDA095BA2FE81AF90A60
:100210000A0B1B0BC801B70120EA36E841E050E0A9
:100220000E94F00B20E137E240E050E00E94F00B2A
:1002300038872F83C801B70120E137E240E050E062
:100240000E94F00B28EE33E040E050E00E94F00BFB
:100250003E832D83C801B70128EE33E040E050E033
:100260000E94F00B24E630E040E050E00E94F00BEA
:100270003C832B83C801B70124E630E040E050E026
:100280000E94F00B2AE030E040E050E00E94F00BCA
:100290003A8329834E010894811C911CF40120E0CB
:1002A00030E084E090E08419950904C01192119225
:1002B0002F5F3F4F28173907CCF3EE24FF24AA24E1
:1002C000D7FCA394BB24CC24DD241A2DD4012C917B
:1002D000E614F70411F401E006C0E114F10411F092
:1002E00000E001C0012F88E792E060E070E0A70124
:1002F0000E9482050894E11CF11CE2E0F0E08E0E01
:100300009F1EF4E0EF16F10409F728960FB6F89453
:10031000DEBF0FBECDBFCF91DF911F910F91FF9038
:10032000EF90DF90CF90BF90AF909F908F907F9095
:100330006F905F904F9008956F927F928F929F92EF
:10034000AF92BF92CF92DF92EF92FF920F931F93E3
:100350000E943E073B014C018091960190919701CC
:10036000A0919801B0919901681679068A069B06BA
:1003700008F4ABC10196A11DB11D80939601909325
:100380009701A0939801B0939901E0900201F09039
:100390000301009104011091050180E00E9487078C
:1003A000AA2797FDA095BA2FBC01CD010E941B0A78
:1003B0009B01AC01C801B7010E94E40A7B018C01DA
:1003C00060E070E080E89FE320910201309103013A
:1003D00040910401509105010E9418092091880163
:1003E0003091890140918A0150918B010E94E40A69
:1003F0009B01AC01C801B7010E94190960938801F3
:100400007093890180938A0190938B0120E030E002
:1004100048EC52E40E94E40A7B018C0120E030E0C9
:1004200040E050E00E94E00A88234CF0C801B70188
:1004300020E030E040E05FE30E94190908C0C801F5
:10044000B70120E030E040E05FE30E9418090E941D
:10045000E8099B01AC0100D000D088EE93E0A0E059
:10046000B0E0EDB7FEB781839283A383B483CA0162
:10047000B90120E030E040E050E0F0E9EF2EFFE588
:10048000FF2EF1E00F2F112DAA24BB2465010E943D
:100490009E0670938D0160938C01E0908801F0902E
:1004A000890100918A0110918B010F900F900F909C
:1004B0000F90C801B70120E030E040E050E00E941A
:1004C000E00A88234CF0C801B70120E030E040E0AA
:1004D0005FE30E94190908C0C801B70120E030E0BD
:1004E00040E05FE30E9418090E94E8099B01AC010B
:1004F00000D000D08FEF90E0A0E0B0E0EDB7FEB705
:1005000081839283A383B483CA01B90120E030E0E0
:1005100040E050E0E4E8EE2EE3E0FE2E012D112D48
:10052000AA24BB2465010E949E069B01AC010F908A
:100530000F900F900F908BE0B9010E94A907809156
:10054000680290916902A0916A02B0916B026816EC
:1005500079068A069B0660F180916202909163029F
:10056000AA2797FDA095BA2F860D971DA81DB91D26
:100570008093680290936902A0936A02B0936B0221
:100580001092750210927402809176029091770217
:10059000AA2797FDA095BA2F860D971DA81DB91DF6
:1005A0008093700290937102A0937202B0937302D1
:1005B00040917002509171026091720270917302C9
:1005C000641675068606970608F12091740230912C
:1005D000750223363105D4F480916602909167024A
:1005E000AA2797FDA095BA2F840F951FA61FB71FA6
:1005F0008093700290937102A0937202B093730281
:100600002F5F3F4F30937502209374028091E00278
:100610000E948308892BC9F42091D0023091D10225
:100620008091D2029091D302281739073CF42F5FB2
:100630003F4F3093D1022093D00218C081E090E068
:100640009093D5028093D40211C08091D0029091F2
:10065000D1021816190634F401979093D1028093B1
:10066000D00204C01092D5021092D4026091D4023C
:100670007091D5028091E6029091E7028617970764
:10068000E1F088E00E942F088091D4029091D50279
:10069000892B99F48091D6029091D7029301281B5F
:1006A000390B3093E3022093E2026092D6027092FB
:1006B000D7028092D8029092D9028091D402909170
:1006C000D5029093E7028093E60280919201909187
:1006D0009301A0919401B0919501681679068A065C
:1006E0009B0608F46DC08091D6029091D702A0912C
:1006F000D802B091D902A4019301281B390B4A0BEF
:100700005B0B8091E8029091E902A0E0B0E08217D3
:100710009307A407B50748F41092DC021092DD029B
:100720001092DE021092DF0225C08091E2029091C9
:10073000E3027C010027F7FC0095102FE216F30678
:100740000407150738F460E472E48FE090E00E943B
:10075000CE0B08C060E472E48FE090E0A80197013E
:100760000E94F00B2093DC023093DD024093DE0206
:100770005093DF026091DC027091DD028091DE0215
:100780009091DF022CE330E040E050E00E94AF0B9C
:1007900044E050E00E94AC00809100019091010182
:1007A000AA2797FDA095BA2F860D971DA81DB91DE4
:1007B0008093920190939301A0939401B09395013B
:1007C0001F910F91FF90EF90DF90CF90BF90AF906F
:1007D0009F908F907F906F9008950F931F9308E7DD
:1007E00012E0C80160E070E040E00E940606C80127
:1007F00060E070E04CE050E00E94E205C80160E07B
:1008000070E00E94AD051F910F9108952F923F92C5
:100810004F925F926F927F928F929F92AF92BF9210
:10082000CF92DF92EF92FF920F931F93DF93CF93BC
:1008300000D000D000D0CDB7DEB77C836B839A8325
:1008400089831E821D821B01442437FC4094542C52
:100850003A01882477FC8094982C4DC02D813E81EC
:10086000B901882777FD8095982F0E941B0A2BEDF0
:100870003FE049EC50E40E94E40A7B018C01C20194
:10088000B1010E941B0A9B01AC01C801B7010E9483
:1008900080092BED3FE049E450E40E9418090E94D2
:1008A0007D095B016C01C401B3010E941B0A20E0B9
:1008B00030E040E05FE30E94E40A7B018C01C60166
:1008C000B50120E030E040E85FE30E9419099B0198
:1008D000AC01C801B7010E94E40A0E94E809E9815D
:1008E000FA8161937193FA83E9832D813E812F5FB1
:1008F0003F4F3E832D838D819E81EB81FC818E173E
:100900009F070CF4ABCF26960FB6F894DEBF0FBE50
:10091000CDBFCF91DF911F910F91FF90EF90DF90AE
:10092000CF90BF90AF909F908F907F906F905F908F
:100930004F903F902F9008958BE061E00E9409084E
:1009400087E060E00E94090888E061E00E940908F1
:100950000E94ED030E943E0760938E0170938F0109
:10096000809390019093910125E030E03093DB0279
:100970002093DA0288EB9BE09093E9028093E802EF
:1009800087E090E09093E1028093E0023093D302FD
:100990002093D20280E293E0A0E0B0E08093EA02EC
:1009A0009093EB02A093EC02B093ED0281E090E013
:1009B0009093E5028093E40210926802109269021B
:1009C00010926A0210926B0288E893E1909363029E
:1009D0008093620210927002109271021092720261
:1009E00010927302909365028093640282E390E018
:1009F00090936702809366021092750210927402BF
:100A000010927702109276028AE991E064E670E033
:100A10004FEF50E00E94060408958F929F92AF928C
:100A2000BF92CF92DF92EF92FF920F931F93DF93CB
:100A3000CF9300D0CDB7DEB77C0149832A83660F00
:100A4000771F86E590E0E80EF91EF701008111811D
:100A50008AEA9FEFE80EF91E000F111F80E090E078
:100A600005C0F701E80FF91F108201968017910762
:100A7000C4F38981F701E60FF71F81838A818083A0
:100A8000F701EC5AFF4F808160E00E942F0801506F
:100A900010406701C00ED11E0F5F1F4F90E5892ED9
:100AA000912C8E0C9F1C82E5A82EB12CAE0CBF1C85
:100AB0000EC001501040F4018081F501608141E0D9
:100AC000F60120810E94D6080894C108D1081016AA
:100AD00011067CF384E590E0E80EF91EF7018081B1
:100AE00061E00E942F080F900F90CF91DF911F912E
:100AF0000F91FF90EF90DF90CF90BF90AF909F90BD
:100B00008F9008950F93DC0177FD25C0AA5ABF4F3F
:100B10008D919C911197A655B04068177907DCF428
:100B200048305105C0F42031B0F4E22FF0E0E95F25
:100B3000FE4F208101112068FB0183E0EE0FFF1FB3
:100B40008A95E1F7EA0FFB1FE40FF51F208B4F5F3B
:100B5000CD010E940D050F910895DF92EF92FF9253
:100B60000F931F93CF93DF93EC017B0177FD22C09E
:100B7000CA5ADF4F88819981C655D04068177907D6
:100B8000CCF48B010E5F1F4F53E0000F111F5A95DD
:100B9000E1F70C0F1D1FDD24D394F80111928F0192
:100BA000CE01B7014D2D20E00E940D05D394F9E050
:100BB000DF1699F7DF91CF911F910F91FF90EF9082
:100BC000DF900895FC01242F77FD0DC0EA5AFF4FF6
:100BD00080819181E655F0406817790724F4CF01B0
:100BE0004AE00E940D050895FC01242F77FD0DC0F9
:100BF000EA5AFF4F80819181E655F04068177907E6
:100C000024F4CF014BE00E940D050895FC0177FD0F
:100C100016C0EA5AFF4F80819181E655F04068176F
:100C200079076CF4442331F0CF014CE020E00E94BE
:100C30000D050895CF014CE021E00E940D050895B7
:100C4000CF92DF92EF92FF920F931F93CF93DF9398
:100C5000EC016B01C05BDF4F699379934993599322
:100C600039832883C455D040C8010197089710F0F4
:100C700008E010E0CA5ADF4F19830883C655D040F8
:100C80008E01005B1F4FF801808161E00E9409081E
:100C9000FE01EE5AFF4F808161E00E94090874E571
:100CA000E72EF12CEC0EFD1EF701808161E00E9421
:100CB0000908F701808161E00E942F08F801D182C4
:100CC000C082FE0180E090E0108A01963196803467
:100CD0009105D1F700E010E066E5C62ED12CCC0ED0
:100CE000DD1E1DC0CE01B8014FE020E00E940D05C1
:100CF000CE01B80147E050E00E94F405CE01B801F2
:100D000049E020E00E940D05CE01B8010E94AD052A
:100D1000CE01B80141E00E9406060F5F1F4FF601A9
:100D20008081918108171907ECF2DF91CF911F9113
:100D30000F91FF90EF90DF90CF9008952F923F9208
:100D40004F925F926F927F928F929F92AF92BF92DB
:100D5000CF92DF92EF92FF920F931F93DF93CF9387
:100D6000CDB7DEB73B014C0119012A016D897E899F
:100D70008F89988D6A197B098C099D09621A730AFB
:100D8000840A950AA40193010E94AF0BE218F308AC
:100D900004091509A80197010E94F00B2A0D3B1DBB
:100DA0004C1D5D1DB901CA01CF91DF911F910F91BB
:100DB000FF90EF90DF90CF90BF90AF909F908F907B
:100DC0007F906F905F904F903F902F900895CF93BA
:100DD000DF930E944C070E949C04C0E0D0E00E9478
:100DE0009C012097E1F30E940000F9CF1F920F921F
:100DF0000FB60F9211242F933F938F939F93AF932E
:100E0000BF938091F2029091F302A091F402B0910D
:100E1000F5023091F6020196A11DB11D232F2D5F21
:100E20002D3720F02D570196A11DB11D2093F602FC
:100E30008093F2029093F302A093F402B093F50230
:100E40008091EE029091EF02A091F002B091F10238
:100E50000196A11DB11D8093EE029093EF02A09325
:100E6000F002B093F102BF91AF919F918F913F91AA
:100E70002F910F900FBE0F901F9018958FB7F89479
:100E80002091F2023091F3024091F4025091F50268
:100E90008FBFB901CA010895789484B5826084BD7A
:100EA00084B5816084BD85B5826085BD85B581606E
:100EB00085BDEEE6F0E0808181608083E1E8F0E0CE
:100EC0001082808182608083808181608083E0E8FD
:100ED000F0E0808181608083E1EBF0E080818460DC
:100EE0008083E0EBF0E0808181608083EAE7F0E0DE
:100EF0008081846080838081826080838081816042
:100F000080838081806880831092C1000895982F2B
:100F10008E3008F09E509770809106018295880F60
:100F2000880F807C892B80937C0080917A0080647C
:100F300080937A0080917A0086FDFCCF2091780022
:100F400040917900942F80E030E0282B392BC901A3
:100F500008951F93CF93DF93182FEB0161E00E9458
:100F60000908209709F44AC0CF3FD10509F449C0C8
:100F7000E12FF0E0E453FF4F84918330C1F08430DF
:100F800028F4813051F08230B1F50CC0863019F16F
:100F9000873049F1843079F514C084B5806884BD08
:100FA000C7BD33C084B5806284BDC8BD2EC08091EA
:100FB0008000806880938000D0938900C09388006F
:100FC00024C080918000806280938000D0938B0049
:100FD000C0938A001AC08091B00080688093B000EE
:100FE000C093B30012C08091B00080628093B000C3
:100FF000C093B4000AC0C038D1051CF4812F60E052
:1010000002C0812F61E00E942F08DF91CF911F91D4
:101010000895482F50E0CA0188549F4FFC01249145
:101020004C555F4FFA0184918823C1F0E82FF0E01E
:10103000EE0FFF1FEA57FF4FA591B491662341F4CD
:101040009FB7F8948C91209582238C939FBF08952D
:101050009FB7F8948C91822B8C939FBF0895482F53
:1010600050E0CA0184539F4FFC012491CA01885467
:101070009F4FFC0194914C555F4FFA0134913323FB
:1010800009F440C0222351F1233071F0243028F4B8
:101090002130A1F0223011F514C02630B1F02730F4
:1010A000C1F02430D9F404C0809180008F7703C050
:1010B000809180008F7D8093800010C084B58F77F1
:1010C00002C084B58F7D84BD09C08091B0008F7748
:1010D00003C08091B0008F7D8093B000E32FF0E0DB
:1010E000EE0FFF1FE057FF4FA591B4912FB7F89473
:1010F000662321F48C919095892302C08C91892BD1
:101100008C932FBF0895682F70E0CB0184539F4FBD
:10111000FC012491CB0188549F4FFC0144916C55F4
:101120007F4FFB019491992319F420E030E03CC0FB
:10113000222351F1233071F0243028F42130A1F022
:10114000223011F514C02630B1F02730C1F0243020
:10115000D9F404C0809180008F7703C08091800013
:101160008F7D8093800010C084B58F7702C084B5D6
:101170008F7D84BD09C08091B0008F7703C08091BE
:10118000B0008F7D8093B000892F90E0880F991F69
:1011900086569F4FFC01A591B4918C9120E030E0E0
:1011A000842311F021E030E0C9010895BF92CF926D
:1011B000DF92EF92FF920F931F93CF93DF93E82E6E
:1011C000F62EB42EC7E0D0E0022F10E087E0C82E44
:1011D000D12CBB2059F4B6016C1B7D0BC80102C099
:1011E000959587956A95E2F7BC0107C0B8010C2E6A
:1011F00002C0759567950A94E2F761708E2D0E9482
:101200002F088F2D61E00E942F088F2D60E00E9433
:101210002F0821979FEFCF3FD907D9F6DF91CF91C4
:101220001F910F91FF90EF90DF90CF90BF900895A6
:101230005058BB27AA270ED078C141D130F046D1F3
:1012400020F031F49F3F11F41EF436C10EF4E09506
:10125000E7FB2CC1E92F8BD180F3BA176207730724
:101260008407950718F071F49EF5A3C10EF4E0957C
:101270000B2EBA2FA02D0B01B90190010C01CA0150
:10128000A0011124FF27591B99F0593F50F4503EFB
:1012900068F11A16F040A22F232F342F4427585FED
:1012A000F3CF469537952795A795F0405395C9F705
:1012B0007EF41F16BA0B620B730B840BBAF09150BD
:1012C000A1F0FF0FBB1F661F771F881FC2F70EC05C
:1012D000BA0F621F731F841F48F48795779567952F
:1012E000B795F7959E3F08F0B3CF9395880F08F018
:1012F0009927EE0F979587950895F0D0E39526C12D
:101300000CD013C1E3D040F0DAD030F021F45F3FCD
:1013100019F0CCC051114EC1CFC029D198F39923F7
:10132000C9F35523B1F3951B550BBB27AA276217A9
:101330007307840738F09F5F5F4F220F331F441FEE
:10134000AA1FA9F333D00E2E3AF0E0E830D0915026
:101350005040E695001CCAF729D0FE2F27D0660F13
:10136000771F881FBB1F261737074807AB07B0E852
:1013700009F0BB0B802DBF01FF2793585F4F2AF068
:101380009E3F510568F092C015C15F3FECF3983E57
:10139000DCF3869577956795B795F7959F5FC9F7C5
:1013A000880F911D9695879597F90895E1E0660F4E
:1013B000771F881FBB1F621773078407BA0720F0C7
:1013C000621B730B840BBA0BEE1F88F7E095089530
:1013D00004D06894B111EEC00895D1D088F09F5721
:1013E00090F0B92F9927B751A0F0D1F0660F771F71
:1013F000881F991F1AF0BA95C9F712C0B13081F051
:10140000D8D0B1E00895D5C0672F782F8827B85F6E
:1014100039F0B93FCCF3869577956795B395D9F7B1
:101420003EF490958095709561957F4F8F4F9F4FBB
:101430000895E89409C097FB3EF4909580957095C7
:1014400061957F4F8F4F9F4F9923A9F0F92F96E910
:10145000BB279395F695879577956795B795F11185
:10146000F8CFFAF4BB0F11F460FF1BC06F5F7F4F22
:101470008F4F9F4F16C0882311F096E911C0772334
:1014800021F09EE8872F762F05C0662371F096E83D
:10149000862F70E060E02AF09A95660F771F881F0C
:1014A000DAF7880F9695879597F9089597F99F67CA
:1014B00080E870E060E008959FEF80EC08950024DC
:1014C0000A941616170618060906089500240A94A9
:1014D00012161306140605060895EECF50D0E8F351
:1014E000E894E0E0BB279F57F0F02AED3FE049EC9D
:1014F00006C0EE0FBB0F661F771F881F28F0B23A99
:1015000062077307840728F0B25A620B730B840BCF
:10151000E3959A9572F7803830F49A95BB0F661F61
:10152000771F881FD2F79048D8C0092E0394000C6B
:1015300011F4882352F0BB0F40F4BF2B11F460FF6D
:1015400004C06F5F7F4F8F4F9F4F0895EF93E0FF71
:1015500006C0A2EA2AED3FE049EC5FEB7BDEE5DF67
:101560000F90039401FC9058E8E6F0E0C2C057FDEC
:101570009058440F551F59F05F3F71F04795880F01
:1015800097FB991F61F09F3F79F087950895121698
:1015900013061406551FF2CF4695F1DF08C0161644
:1015A00017061806991FF1CF8695710561050894F5
:1015B0000895E894BB2766277727CB0197F908950C
:1015C00066D008F48FEF08950BD0AFCF78DF28F006
:1015D0007DDF18F0952309F069CF6ECF1124EACF93
:1015E000C6DFA0F3959FD1F3950F50E0551F629F82
:1015F000F001729FBB27F00DB11D639FAA27F00D6C
:10160000B11DAA1F649F6627B00DA11D661F829F92
:101610002227B00DA11D621F739FB00DA11D621F77
:10162000839FA00D611D221F749F3327A00D611D94
:10163000231F849F600D211D822F762F6A2F112476
:101640009F5750408AF0E1F088234AF0EE0FFF1FC9
:10165000BB1F661F771F881F91505040A9F79E3F00
:10166000510570F023CFA6CF5F3FECF3983EDCF33B
:10167000869577956795B795F795E7959F5FC1F73D
:10168000FE2B880F911D9695879597F90895990FD0
:101690000008550FAA0BE0E8FEEF16161706E8073C
:1016A000F907C0F012161306E407F50798F0621B5D
:1016B000730B840B950B39F40A2661F0232B242B32
:1016C000252B21F408950A2609F4A140A6958FEF51
:1016D000811D811D08959F3F31F0915020F4879521
:1016E00077956795B795880F911D9695879597F98A
:1016F00008959F938F937F936F93FF93EF939B0135
:10170000AC0162DFEF91FF9105D02F913F914F9196
:101710005F915ACFDF93CF931F930F93FF92EF9276
:10172000DF927B018C01689405C0DA2EEF0158DF4F
:10173000FE01E894A5912591359145915591AEF31F
:10174000EF0188DDFE019701A801DA9479F7DF90B7
:10175000EF90FF900F911F91CF91DF910895629FBD
:10176000D001739FF001829FE00DF11D649FE00D99
:10177000F11D929FF00D839FF00D749FF00D659FFA
:10178000F00D9927729FB00DE11DF91F639FB00DF9
:10179000E11DF91FBD01CF0111240895A1E21A2E08
:1017A000AA1BBB1BFD010DC0AA1FBB1FEE1FFF1F05
:1017B000A217B307E407F50720F0A21BB30BE40B55
:1017C000F50B661F771F881F991F1A9469F760959C
:1017D0007095809590959B01AC01BD01CF01089556
:1017E00097FB092E05260ED057FD04D0D7DF0AD06F
:1017F000001C38F450954095309521953F4F4F4F40
:101800005F4F0895F6F790958095709561957F4F9D
:101810008F4F9F4F0895EE0FFF1F0590F491E02D1D
:061820000994F894FFCFCB
:101826003200CDCC4C3D017E306D79335B5F707FED
:101836007B771F0D3D4F47000000000000000000B1
:101846000000000000000000000000000000000092
:10185600000000800180007E306D79335B5F707F11
:101866007B00000000000000771F0D3D4F4700374A
:101876000000000E000000670000000000000000ED
:101886000000000000000800771F0D3D4F4700379D
:101896000000000E000000670000000000000000CD
:0818A60000000000000000003A
:00000001FF
