:100000000C9462000C94E1080C940E090C948A0084
:100010000C948A000C948A000C948A000C948A0038
:100020000C948A000C948A000C948A000C948A0028
:100030000C948A000C948A000C948A000C948A0018
:100040000C9493090C948A000C9486060C94CD06AB
:100050000C948A000C948A000C948A000C948A00F8
:100060000C948A000C948A000000000024002700F1
:100070002A0000000000250028002B0000000000DE
:1000800023002600290004040404040404040202DA
:100090000202020203030303030301020408102007
:1000A0004080010204081020010204081020000012
:1000B0000007000201000003040600000000000029
:1000C0000000440811241FBECFEFD8E0DEBFCDBF33
:1000D00013E0A0E0B1E0EAE4FEE102C005900D9279
:1000E000AC3CB107D9F715E0ACECB3E001C01D9210
:1000F000A436B107E1F710E0C4ECD0E004C02297C9
:10010000FE010E943A0CC23CD107C9F70E94840943
:100110000C94230F0C94000081E090E09093710404
:10012000809370040895EF92FF920F931F93CF93E3
:10013000DF938B019C01EA014A895B8941155105D6
:1001400009F44BC08E819F81A885B985780189010A
:10015000E81AF90A0A0B1B0B888D998DA0E0B0E014
:100160008E159F05A007B10728F41C861D861E86E4
:100170001F8633C0CA01AA2797FDA095BA2F6C89A4
:100180007D898E159F05A007B10790F49B01442738
:1001900037FD4095542FC801B7010E94B50B9B0154
:1001A000AC0160E472E48FE090E00E94E70B11C0C4
:1001B000469F9001479F300D569F300D11244427D4
:1001C00037FD4095542F60E472E48FE090E00E9488
:1001D000090C2C873D874E875F87DF91CF911F9158
:1001E0000F91FF90EF900895CF93DF93EC018881FA
:1001F0000E94200B9C018A819B8182179307B1F199
:100200003B832A832130310539F40E94DB096C835A
:100210007D838E839F832AC00E94DB099B01AC01F2
:100220008C819D81AE81BF81281B390B4A0B5B0BF2
:10023000203D87E0380780E0480780E0580718F045
:1002400020ED37E015C0283E83E0380780E04807FE
:1002500080E0580718F028EE33E00AC02431310559
:100260004105510518F024E130E002C020E030E003
:10027000C901DF91CF9108958F929F92AF92BF9263
:10028000CF92DF92EF92FF920F931F934C01FC01EC
:10029000628173818481958120E233E040E050E007
:1002A0000E94B50B7B018C0181E00E94240AAA27E1
:1002B00097FDA095BA2FBC01CD0128EC30E040E0BD
:1002C00050E00E94B50B6E0D7F1D801F911F28EE20
:1002D00033E040E050E00E94090CCA01F40122839F
:1002E00033834483958300D000D046815781608555
:1002F0007185EDB7FEB74183528363837483B9017F
:1003000020E030E040E050E0EFEFEE2EE3E0FE2EA4
:10031000012D112DAA24BB2465010E943B09F40183
:1003200062877387848795870F900F900F900F9047
:100330001F910F91FF90EF90DF90CF90BF90AF9003
:100340009F908F9008958F929F92AF92BF92CF927D
:10035000DF92EF92FF920F931F934C0183E00E9474
:10036000240A5C01D40114966D917D918D919C912C
:10037000179720E233E040E050E00E94B50B7B018C
:100380008C0188EF98EFAFEFBFEFE80EF91E0A1F60
:100390001B1FCC24B7FCC094DC2CC601B50128EC93
:1003A00030E040E050E00E94B50BE60EF71E081F5B
:1003B000191FC801B70128EE33E040E050E00E9469
:1003C000090CCA01D40114962C93149715963C93EA
:1003D000159716964C93169717969C9300D000D0BD
:1003E00048EA51E660E070E0EDB7FEB74183528322
:1003F00063837483B90120E030E040E050E0AFEF68
:10040000EA2EA3E0FA2E012D112DF8E5AF2EFEE91C
:10041000BF2EFFEFCF2EFFEFDF2E0E943B09D4014E
:100420001F967C936E931E970F900F900F900F90D6
:100430001F910F91FF90EF90DF90CF90BF90AF9002
:100440009F908F900895CF93DF93DB010D90002054
:10045000E9F71197A61BB70BEC01E881F98102803F
:10046000F381E02DAD010995DF91CF9108951F93A0
:10047000982F162F86E0692F0E94CC0A84E060E056
:100480000E94CC0A87E068E041E0212F0E94730BB4
:1004900084E061E00E94CC0A1F9108951F93162FFB
:1004A000682F606880E00E943702106480E0612F4E
:1004B0000E9437021F91089584E061E00E94A60A1D
:1004C00085E061E00E94A60A86E061E00E94A60A3B
:1004D00087E061E00E94A60A88E061E00E94A60A27
:1004E00085E060E00E94CC0A85E061E00E94CC0AD1
:1004F00080E061E20E94370280E061EB0E943702F7
:1005000080E064E00E94370280E064E10E943702EC
:1005100080E06CE00E94370280E060E20E943702D7
:1005200080E06CE00E9437020895CF93DF93C0E033
:10053000D0E081E060E00E943702219681E0C83F70
:10054000D807B9F7DF91CF9108950F931F93CF93F9
:10055000DF93182F81E060E00E943702812F9927F6
:1005600087FD90958097EC01CC0FDD1FCC0FDD1F30
:10057000C80FD91FC452DE4F85E018028001112434
:100580000F5B1E4F81E069910E943702C017D107AF
:10059000C9F781E060E00E943702DF91CF911F919F
:1005A0000F910895CF93DF93EC0103C021960E9431
:1005B000A50288818823D1F7DF91CF9108956F92AA
:1005C0007F928F929F92AF92BF92CF92DF92EF92E3
:1005D000FF920F931F93CF93DF930E94DB093B01A0
:1005E0004C018091D8039091D903A091DA03B09186
:1005F000DB03681679068A069B0608F4D2C20196C8
:10060000A11DB11D8093D8039093D903A093DA0361
:10061000B093DB0388EA94E00E94F4004497A0F0D2
:100620008091D5019091D601AA2797FDA095BA2F68
:10063000860D971DA81DB91D8093C9019093CA010D
:10064000A093CB01B093CC018091E8039091E90392
:10065000A091EA03B091EB03681679068A069B061F
:10066000C8F18091D7019091D801AA2797FDA09554
:10067000BA2F860D971DA81DB91D8093E80390938E
:10068000E903A093EA03B093EB0380917004909187
:100690007104892BB9F0109271041092700480914A
:1006A0007204909173049301281B390B30937F04DB
:1006B00020937E046092720470927304809274049A
:1006C0009092750480917C040E94200B682F8DE02D
:1006D0000E94CC0A8091D4039091D503A091D603B7
:1006E000B091D703681679068A069B06D0F08091F0
:1006F000CF019091D001AA2797FDA095BA2F860D22
:10070000971DA81DB91D8093D4039093D503A09382
:10071000D603B093D703C401B3014CE654E00E9462
:1007200093008091DC039091DD03A091DE03B091F2
:10073000DF03681679068A069B06E0F08091D101F6
:100740009091D201AA2797FDA095BA2F860D971DEB
:10075000A81DB91D8093DC039093DD03A093DE03F5
:10076000B093DF038AE894E00E94A3018AE994E051
:100770000E943C018091E4039091E503A091E6037F
:10078000B091E703681679068A069B06C0F180914E
:10079000D3019091D401AA2797FDA095BA2F860D79
:1007A000971DA81DB91D8093E4039093E503A093C2
:1007B000E603B093E70320E030E08091D901909107
:1007C000DA01892B11F421E030E03093DA01209333
:1007D000D90180E090E062E070E00E944E028091DA
:1007E000D9019091DA018130910519F480E091E00E
:1007F00004C0892B21F487E091E00E94D20280910D
:10080000E0039091E103A091E203B091E303681645
:1008100079068A069B0608F4AEC18091CD019091BD
:10082000CE01AA2797FDA095BA2F860D971DA81D6A
:10083000B91D8093E0039093E103A093E203B0938A
:10084000E30340919804E09199048DB79EB70A970D
:100850000FB6F8949EBF0FBE8DBFCDB7DEB7219601
:100860008CEE93E0ADB7BEB712969C938E93119722
:100870008BE090E09B838A838EE091E09D838C8364
:10088000842F9E2F68EE73E00E94D40B7F836E83CB
:10089000242F3E2FC90197FF03C0909581959F4F4C
:1008A00068EE73E00E94D40B6AE070E00E94D40B03
:1008B000798768870E943E0CEDB7FEB73A960FB66F
:1008C000F894FEBF0FBEEDBF86E090E061E070E0FF
:1008D0000E944E028BE191E00E94D20286E090E0FD
:1008E00061E070E00E944E02CCEED3E0CE010E94A7
:1008F000D2028091D9019091DA0181309105F1F510
:10090000609178047091790480917A0490917B04CD
:100910002CE330E040E050E00E94B50B6B017C011D
:100920002DB73EB72E5030400FB6F8943EBF0FBEE5
:100930002DBF0DB71EB70F5F1F4FADB7BEB71296D5
:10094000DC93CE9311978BE090E0F8019383828340
:1009500087E291E095838483C701B60128EE33E0F6
:1009600040E050E00E94090CD80116962D933D936B
:100970004D935C931997C701B60167C0892B09F0A5
:1009800080C06091980470919904882777FD8095C4
:10099000982F2091A4043091A5044091A604509171
:1009A000A7040E94B50BAC01CB01DA01BC01CD015B
:1009B00097FF07C090958095709561957F4F8F4FF9
:1009C0009F4F28EE33E040E050E00E94090CF22EE9
:1009D000E32ED42EC52E2093CC033093CD03409329
:1009E000CE035093CF038DB79EB70E970FB6F894F2
:1009F0009EBF0FBE8DBF0DB71EB70F5F1F4F8CEE92
:100A000093E0ADB7BEB712969C938E9311978BE08F
:100A100090E0F8019383828385E391E0958384835A
:100A2000622F732F842F952F28EE33E040E050E0A3
:100A30000E94090CD80116962D933D934D935C931B
:100A400019976F2D7E2D8D2D9C2D28EE33E040E0E3
:100A500050E00E94090C24E630E040E050E00E94A3
:100A6000090CF80122873387448755870E943E0C82
:100A70002DB73EB7225F3F4F0FB6F8943EBF0FBE73
:100A80002DBF86E090E063E070E00E944E028BE1B3
:100A900091E00E94D20286E090E063E070E00E9464
:100AA0004E021CEEA12E13E0B12EC5010E94D2020F
:100AB000C090A404D090A504E090A604F090A704F0
:100AC0008DB79EB70E970FB6F8949EBF0FBE8DBF21
:100AD0000DB71EB70F5F1F4FADB7BEB71296BC92D2
:100AE000AE9211978CE090E0F8019383828385E4C5
:100AF00091E095838483C701B60128EE33E040E09E
:100B000050E00E94090CD80116962D933D934D9309
:100B10005C931997C701B60128EE33E040E050E03E
:100B20000E94090C2AE030E040E050E00E94090CED
:100B3000F80122873387448755870E943E0C2DB7E2
:100B40003EB7225F3F4F0FB6F8943EBF0FBE2DBF9A
:100B500086E090E065E070E00E944E028BE191E05B
:100B60000E94D20286E090E065E070E00E944E02B2
:100B7000C5010E94D2028091C9019091CA01A09141
:100B8000CB01B091CC0186159705A805B90520F0D9
:100B900089E063E270E003C089E060E070E00E94F9
:100BA000460ADF91CF911F910F91FF90EF90DF9058
:100BB000CF90BF90AF909F908F907F906F9008954F
:100BC0000F931F9380E06CE870E042E050E00E94D9
:100BD000BE0808E315E0C80140E052EC61E070E0B7
:100BE0000E941607C80165E571E00E942302C80152
:100BF00064E971E00E9423028BE061E00E94A60A92
:100C000081E060E00E94A60A82E060E00E94A60AFD
:100C10008DE061E00E94A60A8CE060E00E94A60AD6
:100C20000E945C0280E090E060E070E00E944E0272
:100C30000E94950287EB91E00E94D20280E090E052
:100C400062E070E00E944E0280E091E00E94D202D9
:100C500080E090E064E070E00E944E0280EC91E061
:100C60000E94D2020E94DB096093D0037093D103EB
:100C70008093D2039093D30325E030E03093770440
:100C80002093760488E893E190938504809384040C
:100C900082E090E090937D0480937C0430936F0415
:100CA00020936E0480E293E0A0E0B0E0809386049D
:100CB00090938704A0938804B093890421E030E0E6
:100CC0003093810420938004109278041092790468
:100CD00010927A0410927B048CE090E09093A90427
:100CE0008093A8043093AB042093AA0480EA99E08F
:100CF000A1E0B0E08093A0049093A104A093A2048B
:100D0000B093A3041F910F91089508951F920F921D
:100D10000FB60F9211242F933F934F938F939F936E
:100D2000EF93FF934091C6002091F0043091F104BD
:100D30002F5F3F4F2F7330708091F2049091F30436
:100D40002817390759F0E091F004F091F104E055CB
:100D5000FB4F40833093F1042093F004FF91EF9117
:100D60009F918F914F913F912F910F900FBE0F90B8
:100D70001F901895E0914405F0914505E05CFF4F08
:100D80008191919120813181821B930B8F7390709F
:100D9000892B11F00E94850608951F920F920FB6BD
:100DA0000F9211242F933F934F935F936F937F93F1
:100DB0008F939F93AF93BF93EF93FF93209134054D
:100DC0003091350580913605909137052817390700
:100DD00031F48091C1008F7D8093C10016C0E091F5
:100DE0003605F0913705EC50FB4F40818091360578
:100DF00090913705019660E470E00E94D40B9093C7
:100E00003705809336054093C600FF91EF91BF915F
:100E1000AF919F918F917F916F915F914F913F9192
:100E20002F910F900FBE0F901F901895AF92BF9209
:100E3000DF92EF92FF920F931F93CF93DF93EC011A
:100E40007A018B01DD24403081EE580780E068078D
:100E500080E0780711F0DD24D39491E0A92EB12C25
:100E6000EC89FD89DD2069F0C5010E8C02C0880F78
:100E7000991F0A94E2F7808360E079E08DE390E0C7
:100E800005C0108260E874E88EE190E0A801970147
:100E90000E94E70B21503040404050405695479506
:100EA0003795279580E12030380720F0DD2011F0BC
:100EB000DD24D6CFE889F9893083EA89FB8920834C
:100EC000EE89FF89408121E030E0C9010A8C02C02F
:100ED000880F991F0A94E2F7482B4083EE89FF8917
:100EE0004081C9010B8C02C0880F991F0A94E2F758
:100EF000482B4083EE89FF894081C9010C8C02C0D8
:100F0000880F991F0A94E2F7482B4083EE89FF89E6
:100F100080810D8C02C0220F331F0A94E2F72095C6
:100F200028232083DF91CF911F910F91FF90EF90A5
:100F3000DF90BF90AF900895DC011C96ED91FC917D
:100F40001D97E05CFF4F2191319180819181281B99
:100F5000390B2F733070C9010895DC011C96ED9197
:100F6000FC911D97E05CFF4F20813181E054F040FF
:100F7000DF01AE5BBF4F8D919C9111972817390708
:100F800019F42FEF3FEF07C08D919C91E80FF91FE7
:100F90008081282F30E0C9010895DC011C96ED9175
:100FA000FC911D97E05CFF4F20813181E054F040BF
:100FB000DF01AE5BBF4F8D919C91119728173907C8
:100FC00019F42FEF3FEF10C08D919C911197E80F0E
:100FD000F91F20818D919C91119701968F739070CC
:100FE00011969C938E9330E0C9010895FC0186858B
:100FF0009785DC01A05CBF4FFC01EE5BFF4F2D919C
:101000003C9111978081918128173907C1F7089584
:10101000CF93DF93EC01462FEE85FF85E05CFF4F19
:1010200080819181E054F040019660E470E00E947C
:10103000D40B9C01DF01AE5BBF4F8D919C9111974A
:1010400028173907D1F3E05CFF4F80819181E0548C
:10105000F040E80FF91F4083EE85FF85E05CFF4F0D
:1010600031832083EE89FF89208181E090E00D8C1F
:1010700002C0880F991F0A94E2F7282B208381E091
:1010800090E0DF91CF91089510923B0510923A05C0
:1010900088EE93E0A0E0B0E080933C0590933D059E
:1010A000A0933E05B0933F0580EC93E09093390503
:1010B0008093380580EB94E0909345058093440538
:1010C00084EF94E0909347058093460585EC90E08B
:1010D000909349058093480584EC90E090934B05EC
:1010E00080934A0580EC90E090934D0580934C05E9
:1010F00081EC90E090934F0580934E0586EC90E054
:10110000909351058093500584E08093520583E0CD
:101110008093530587E08093540585E080935505BF
:1011200081E0809356050895CF92DF92EF92FF926F
:101130000F931F93CF93DF937C016B018A01C0E073
:10114000D0E00FC0D6016D916D01D701ED91FC91FA
:101150000190F081E02DC7010995C80FD91F0150FA
:1011600010400115110571F7CE01DF91CF911F914C
:101170000F91FF90EF90DF90CF900895823000F5AF
:10118000E82FF0E0EE0FFF1FE95AFA4F71836083FA
:10119000882319F08130A1F408C0809169008C7F08
:1011A000842B80936900E89A089580916900440F28
:1011B000551F440F551F837F842B80936900E99A44
:1011C00008951F920F920FB60F9211242F933F9301
:1011D0004F935F936F937F938F939F93AF93BF933F
:1011E000EF93FF938091570590915805892B29F033
:1011F000E0915705F09158050995FF91EF91BF9146
:10120000AF919F918F917F916F915F914F913F919E
:101210002F910F900FBE0F901F9018951F920F9255
:101220000FB60F9211242F933F934F935F936F93B9
:101230007F938F939F93AF93BF93EF93FF9380918F
:10124000590590915A05892B29F0E0915905F091A3
:101250005A050995FF91EF91BF91AF919F918F91A1
:101260007F916F915F914F913F912F910F900FBEA2
:101270000F901F9018952F923F924F925F926F920E
:101280007F928F929F92AF92BF92CF92DF92EF9216
:10129000FF920F931F93DF93CF93CDB7DEB73B0140
:1012A0004C0119012A016D897E898F89988D6A19EF
:1012B0007B098C099D09621A730A840A950AA401A4
:1012C00093010E94B50BE218F30804091509A8015F
:1012D00097010E94090C2A0D3B1D4C1D5D1DB90193
:1012E000CA01CF91DF911F910F91FF90EF90DF9096
:1012F000CF90BF90AF909F908F907F906F905F90B6
:101300004F903F902F900895CF93DF930E94E9096B
:101310000E94E005CAEBD6E00E94DF022097E1F3CD
:101320000E94BA06F9CF1F920F920FB60F921124A6
:101330002F933F938F939F93AF93BF9380915F05BC
:1013400090916005A0916105B091620530916305AF
:101350000196A11DB11D232F2D5F2D3720F02D5794
:101360000196A11DB11D2093630580935F059093A5
:101370006005A0936105B093620580915B05909133
:101380005C05A0915D05B0915E050196A11DB11DA2
:1013900080935B0590935C05A0935D05B0935E051B
:1013A000BF91AF919F918F913F912F910F900FBE61
:1013B0000F901F9018958FB7F89420915F0530918A
:1013C000600540916105509162058FBFB901CA0166
:1013D0000895789484B5826084BD84B5816084BDAD
:1013E00085B5826085BD85B5816085BDEEE6F0E09E
:1013F000808181608083E1E8F0E0108280818260FA
:101400008083808181608083E0E8F0E0808181607A
:101410008083E1EBF0E0808184608083E0EBF0E0AA
:10142000808181608083EAE7F0E08081846080834E
:1014300080818260808380818160808380818068F8
:1014400080831092C1000895982F8E3008F09E502E
:1014500097708091DB018295880F880F807C892BA3
:1014600080937C0080917A00806480937A008091E0
:101470007A0086FDFCCF2091780040917900942F6E
:1014800080E030E0282B392BC90108951F93CF93BA
:10149000DF93182FEB0161E00E94A60A209709F460
:1014A0004AC0CF3FD10509F449C0E12FF0E0E25531
:1014B000FF4F84918330C1F0843028F4813051F0A3
:1014C0008230B1F50CC0863019F1873049F1843093
:1014D00079F514C084B5806884BDC7BD33C084B5B8
:1014E000806284BDC8BD2EC08091800080688093DA
:1014F0008000D0938900C093880024C08091800030
:10150000806280938000D0938B00C0938A001AC0C1
:101510008091B00080688093B000C093B30012C087
:101520008091B00080628093B000C093B4000AC084
:10153000C038D1051CF4812F60E002C0812F61E02A
:101540000E94CC0ADF91CF911F910895482F50E05F
:10155000CA0186569F4FFC0124914A575F4FFA01FA
:1015600084918823C1F0E82FF0E0EE0FFF1FE859C7
:10157000FF4FA591B491662341F49FB7F8948C91E5
:10158000209582238C939FBF08959FB7F8948C91E8
:10159000822B8C939FBF0895482F50E0CA0182553B
:1015A0009F4FFC012491CA0186569F4FFC019491E4
:1015B0004A575F4FFA013491332309F440C0222384
:1015C00051F1233071F0243028F42130A1F0223081
:1015D00011F514C02630B1F02730C1F02430D9F411
:1015E00004C0809180008F7703C0809180008F7D40
:1015F0008093800010C084B58F7702C084B58F7D42
:1016000084BD09C08091B0008F7703C08091B00085
:101610008F7D8093B000E32FF0E0EE0FFF1FEE58B8
:10162000FF4FA591B4912FB7F894662321F48C91C4
:101630009095892302C08C91892B8C932FBF08959C
:10164000682F70E0CB0182559F4FFC012491CB01A4
:1016500086569F4FFC0144916A577F4FFB0194913E
:10166000992319F420E030E03CC0222351F12330CB
:1016700071F0243028F42130A1F0223011F514C08B
:101680002630B1F02730C1F02430D9F404C0809165
:1016900080008F7703C0809180008F7D80938000D1
:1016A00010C084B58F7702C084B58F7D84BD09C01A
:1016B0008091B0008F7703C08091B0008F7D8093C0
:1016C000B000892F90E0880F991F84589F4FFC012C
:1016D000A591B4918C9120E030E0842311F021E0B9
:1016E00030E0C9010895BF92CF92DF92EF92FF924E
:1016F0000F931F93CF93DF93E82EF62EB42EC7E0FF
:10170000D0E0022F10E087E0C82ED12CBB2059F486
:10171000B6016C1B7D0BC80102C0959587956A9533
:10172000E2F7BC0107C0B8010C2E02C075956795A1
:101730000A94E2F761708E2D0E94CC0A8F2D61E031
:101740000E94CC0A8F2D60E00E94CC0A21979FEF67
:10175000CF3FD907D9F6DF91CF911F910F91FF901D
:10176000EF90DF90CF90BF900895629FD001739F5C
:10177000F001829FE00DF11D649FE00DF11D929F2D
:10178000F00D839FF00D749FF00D659FF00D99276C
:10179000729FB00DE11DF91F639FB00DE11DF91F90
:1017A000BD01CF011124089597FB092E07260AD009
:1017B00077FD04D049D006D000201AF470956195C9
:1017C0007F4F0895F6F7909581959F4F0895A1E278
:1017D0001A2EAA1BBB1BFD010DC0AA1FBB1FEE1FAB
:1017E000FF1FA217B307E407F50720F0A21BB30BF6
:1017F000E40BF50B661F771F881F991F1A9469F772
:1018000060957095809590959B01AC01BD01CF01CD
:10181000089597FB092E05260ED057FD04D0D7DF7B
:101820000AD0001C38F450954095309521953F4FD3
:101830004F4F5F4F0895F6F790958095709561959D
:101840007F4F8F4F9F4F0895AA1BBB1B51E107C0CD
:10185000AA1FBB1FA617B70710F0A61BB70B881F40
:10186000991F5A95A9F780959095BC01CD010895CF
:10187000EE0FFF1F0590F491E02D0994AEE0B0E06B
:10188000E4E4FCE00C94FA0E0D891E898F89988D92
:1018900097FF02C080E090E801979E838D831A83B2
:1018A000098386E08C839E01255E3F4FCE01019621
:1018B000698D7A8DA9010E946F0C4D815E8157FD63
:1018C0000AC02F813885421753070CF49A01020F82
:1018D000131FF80110822E96E4E00C94160FABE073
:1018E000B0E0E5E7FCE00C94EC0E3C012B015A0162
:1018F000FC0117821682838181FD03C06FEF7FEFA9
:10190000C6C19AE0892E1E010894211C311CF301E6
:101910002381F20123FD859123FF81912F018823EB
:1019200009F4B2C1853239F423FD859123FF8191F9
:101930002F01853229F490E0B3010E94620EE7CFB7
:10194000982FFF24EE249924FFE1FF15D0F09B325D
:1019500069F09C3228F4903259F0933291F40EC021
:101960009D3249F0903369F441E024C052E0F52AF9
:1019700084E0F82A28C098E0F92A25C0E0E1FE2A90
:1019800022C0F7FC29C0892F80538A3070F4F6FEFC
:1019900005C0989C902C1124980E15C0E89CE02C52
:1019A0001124E80EF0E2FF2A0EC09E3229F4F6FC64
:1019B0006BC140E4F42A07C09C3619F450E8F52ABC
:1019C00002C0983649F4F20123FD959123FF9191CD
:1019D0002F01992309F0B8CF892F8554833018F04F
:1019E0008052833038F444E050E0A40EB51E5FE32B
:1019F00059830FC0933631F0933779F0933509F05E
:101A000056C020C0F5018081898342E050E0A40ED9
:101A1000B51E610101E010E012C0F501C080D18067
:101A2000F6FC03C06FEF7FEF02C0692D70E042E06B
:101A300050E0A40EB51EC6010E94570E8C015FE750
:101A4000F52214C0F501C080D180F6FC03C06FEF11
:101A50007FEF02C0692D70E042E050E0A40EB51E99
:101A6000C6010E944C0E8C0150E8F52AF3FE07C017
:101A70001AC080E290E0B3010E94620EEA948E2DBB
:101A800090E008171907A8F30EC0F601F7FC85913E
:101A9000F7FE81916F0190E0B3010E94620EE110A8
:101AA000EA94015010400115110579F7EAC0943607
:101AB00011F0993669F5F7FE08C0F50120813181F2
:101AC0004281538184E090E00AC0F50180819181D8
:101AD0009C01442737FD4095542F82E090E0A80EEA
:101AE000B91E9FE6F92257FF09C0509540953095E1
:101AF00021953F4F4F4F5F4FE0E8FE2ACA01B901E1
:101B0000A1012AE030E00E948E0ED82ED21840C0EB
:101B1000953729F41F2D1F7E2AE030E01DC01F2DB0
:101B2000197F9F3661F0903720F4983509F0ACC0EA
:101B30000FC0903739F0983709F0A6C004C028E0EC
:101B400030E00AC0106114FD146020E130E004C0F0
:101B500014FD166020E132E017FF08C0F501608136
:101B600071818281938144E050E008C0F501808159
:101B70009181BC0180E090E042E050E0A40EB51EEF
:101B8000A1010E948E0ED82ED2188FE7F82EF122D6
:101B9000F6FE0BC05EEFF522D91438F4F4FE07C050
:101BA000F2FC05C08FEEF82202C01D2D01C0192DD8
:101BB000F4FE0DC0FE01ED0DF11D8081803319F49E
:101BC00099EEF92208C01F5FF2FE05C003C08F2DF9
:101BD000867809F01F5F0F2DF3FC14C0F0FE0FC0D4
:101BE0001E1510F09D2C0BC09D2C9E0C911A1E2DC5
:101BF00006C080E290E0B3010E94620E1F5F1E15D6
:101C0000C0F304C01E1510F4E11A01C0EE2404FF55
:101C10000FC080E390E0B3010E94620E02FF1DC07E
:101C200001FD03C088E790E00EC088E590E00BC09E
:101C3000802F867891F001FF02C08BE201C080E224
:101C4000F7FC8DE290E0B3010E94620E06C080E3D3
:101C500090E0B3010E94620E9A94D914C0F3DA9412
:101C6000F101ED0DF11D808190E0B3010E94620E43
:101C7000DD20A9F706C080E290E0B3010E94620E69
:101C8000EA94EE20C1F743CEF30166817781CB0160
:101C90002B96E2E10C94080FFC0105906150704016
:101CA0000110D8F7809590958E0F9F1F0895FC0125
:101CB0006150704001900110D8F7809590958E0F7B
:101CC0009F1F08950F931F93CF93DF938C01EB0118
:101CD0008B8181FF1BC082FF0DC02E813F818C81D3
:101CE0009D812817390764F4E881F9810193F9830C
:101CF000E88306C0E885F985802F0995892B31F4A2
:101D00008E819F8101969F838E8302C00FEF1FEF0C
:101D1000C801DF91CF911F910F910895FA01AA2771
:101D2000283051F1203181F1E8946F936E7F6E5F1E
:101D30007F4F8F4F9F4FAF4FB1E03ED0B4E03CD0CC
:101D4000670F781F891F9A1FA11D680F791F8A1FAF
:101D5000911DA11D6A0F711D811D911DA11D20D016
:101D600009F468943F912AE0269F11243019305DD0
:101D70003193DEF6CF010895462F4770405D4193C1
:101D8000B3E00FD0C9F7F6CF462F4F70405D4A330E
:101D900018F0495D31FD4052419302D0A9F7EACFD6
:101DA000B4E0A6959795879577956795BA95C9F705
:101DB00000976105710508959B01AC010A2E0694F8
:101DC0005795479537952795BA95C9F7620F731FB1
:101DD000841F951FA01D08952F923F924F925F92EE
:101DE0006F927F928F929F92AF92BF92CF92DF922B
:101DF000EF92FF920F931F93CF93DF93CDB7DEB790
:101E0000CA1BDB0B0FB6F894DEBF0FBECDBF099423
:101E10002A88398848885F846E847D848C849B847A
:101E2000AA84B984C884DF80EE80FD800C811B8188
:101E3000AA81B981CE0FD11D0FB6F894DEBF0FBEB7
:0A1E4000CDBFED010895F894FFCF27
:101E4A0053706565643A00506F7765723A0025648D
:101E5A002E2530326420416D70730020202020200E
:101E6A0020202020202000256C642E2530316C642F
:101E7A002052504D00256C642E2530316C64205759
:101E8A006174747300256C642E2530326C6420569C
:101E9A006F6C7473003C683E74696D650973706594
:101EAA0065640963757272656E7409637572726529
:101EBA006E745F73656E736509766F6C74616765BE
:101ECA0009766F6C746167655F73656E73653C2F25
:101EDA00683E0A003C753E6D730972706D096D416A
:101EEA0009636F756E747309766F6C747309637422
:101EFA00733C2F753E0A0043757272656E743A0020
:101F0A00566F6C746167653A00D0070000E8030AEF
:101F1A00000400D007581B05000100010000000062
:101F2A000000005F00000007000700147F147F1400
:101F3A00242A7F2A12231308646236495522500044
:101F4A0005030000001C2241000041221C00140865
:101F5A003E081408083E0808005030000008080827
:101F6A000808006060000020100804023E5149453C
:101F7A003E00427F400042615149462141454B3172
:101F8A001814127F1027454545393C4A4949300102
:101F9A00710905033649494936064949291E003659
:101FAA0036000000563600000814224100141414AA
:101FBA0014140041221408020151090632497941D8
:101FCA003E7E1111117E7F494949363E41414122E7
:101FDA007F4141221C7F494949417F090909013E44
:101FEA004149497A7F0808087F00417F4100204023
:101FFA00413F017F081422417F404040407F020C4C
:10200A00027F7F0408107F3E4141413E7F09090952
:10201A00063E4151215E7F091929464649494931FF
:10202A0001017F01013F4040403F1F2040201F3FE8
:10203A004038403F63140814630708700807615169
:10204A00494543007F4141000204081020004141F4
:10205A007F000402010204404040404000010204A3
:10206A000020545454787F48444438384444442027
:10207A00384444487F3854545418087E0901020CE5
:10208A005252523E7F0804047800447D40002040AA
:10209A00443D007F1028440000417F40007C041822
:1020AA0004787C0804047838444444387C141414B2
:1020BA0008081414187C7C08040408485454542052
:1020CA00043F4440203C4040207C1C2040201C3CD3
:1020DA004030403C44281028440C5050503C446442
:1020EA00544C44000836410000007F00000041368D
:1020FA0008001008081008784641467800000000D9
:0C210A00080894089C07CD07AD07F607F5
:00000001FF
